:020000040800F2
:10000000C8080020A5010008473A00087B3900080D
:10001000433A00083D0800083D4100080000000088
:10002000000000000000000000000000A53D0008E6
:100030004108000800000000493A0008A73D0008F8
:10004000BF010008BF010008BF010008BF01000890
:10005000BF010008BF010008430800084D08000860
:1000600057080008610800086B080008BF01000875
:10007000BF010008BF010008BF010008BF01000860
:10008000BF010008BF010008BF010008BF01000850
:10009000BF010008BF010008BF0100087508000883
:1000A000BF010008BF010008BF010008C53D0008EE
:1000B000DD3D00080000000000000000BF01000856
:1000C000BF010008BF010008BF010008BF01000810
:1000D000BF010008E5400008BF010008F540000826
:1000E000BF010008BF010008000000000000000080
:1000F0000000000000000000000000000000000000
:1001000000000000BF01000800000000BF0100085F
:100110000000000000000000BF010008BF0100084F
:10012000BF010008BF010008BF010008BF010008AF
:10013000BF010008000000000000000000000000F7
:10014000BF010008BF010008BF0100080000000057
:10015000BF010008BF010008BF010008BF0100087F
:10016000BF010008BF010008BF0100080000000037
:10017000BF010008BF0100080000000000000000EF
:10018000BF010008BF010008BF010008DFF810D060
:1001900000F0C4F900480047C5450008AFF30080EF
:1001A000C80800200648804706480047FEE7FEE7EB
:1001B000FEE7FEE7FEE7FEE7FEE7FEE7FEE7FEE717
:1001C000B13D00088D01000840EA01039B0703D000
:1001D00009E008C9121F08C0042AFAD203E011F886
:1001E000013B00F8013B521EF9D27047D2B201E048
:1001F00000F8012B491EFBD270470022F6E710B52C
:1002000013460A4604461946FFF7F0FF204610BD84
:100210002DE9FE4F81EA030404F0004421F000417F
:1002200000944FF0000B23F0004350EA01045ED02D
:1002300052EA03045BD0C3F30A54C1F30A552C44B9
:10024000A4F2F3340194A0FB0254C1F3130141F46E
:100250008011C3F3130343F4801301FB024400FB3A
:10026000034E840A970A44EA815447EA8357A4FB61
:10027000076802958D0A05FB07854FEA932C04FB5E
:100280000C542705029D4FEA065847EA1637B5EB8E
:1002900008056EEB070C870E920E47EA811742EABB
:1002A0008312A7FB0201B6EB0B0164EB00042B0DDC
:1002B00043EA0C335E1844EB1C50DA465146E7FB28
:1002C0000201C5F313044FEA0B3343EA14534FEA18
:1002D0000432019C43EA0603A4F10C040294009C3E
:1002E000CDE900B400F0CCF803B000F003B8002072
:1002F0000146F9E730BCBDE8C08F2DE9F04D81EA39
:10030000030404F0004B21F0004514464FF0000AAE
:1003100023F0004150EA050220D054EA01021DD02A
:10032000C5F30A570246C5F31303C1F31300C1F323
:100330000A5640F4801543F48013A7EB0608101BFF
:10034000D64608F2FD3873EB050002D308F1010828
:1003500001E092185B41B8F1000F03DA002001467A
:10036000BDE8F08D00204FF48011064684460EE073
:10037000171B73EB050705D3121B63EB050306433D
:100380004CEA010C49084FEA300092185B4150EAF0
:100390000107EDD152EA030012D082EA040083EA99
:1003A0000501084305D0101BAB4106D201220023F2
:1003B00006E000224FF0004302E06FF0010253100C
:1003C0001AEB06004CEB085110EB0A0041EB0B0155
:1003D000BDE8F04D00F045B80EB540F23341029152
:1003E0000021CDE900110A460B4600F049F803B0A0
:1003F00000BDC1F30A5210B5C1F3130140F2FF333F
:1004000041F480119A4201DA002010BD40F23343DA
:100410009A42A2F2334203DC524200F012F810BDBD
:10042000904010BD202A04DB203A00FA02F100209F
:1004300070479140C2F1200320FA03F31943904022
:100440007047202A04DB203A21FA02F0002170478D
:1004500021FA02F3D040C2F120029140084319462C
:10046000704710B5141E73F1000408DA401C41F106
:10047000000192185B411A4301D120F0010010BD28
:100480002DE9F04D92469B4611B1B1FA81F202E09E
:10049000B0FA80F220329046FFF7C4FF04460F46C0
:1004A00040EA0A0041EA0B0153465A46084313D07A
:1004B000114653EA010019D0C8F140025046FFF737
:1004C000C0FF05460E46504659464246FFF7AAFF72
:1004D000084305D0012004E020463946BDE8F08DF0
:1004E0000020054346EAE0762C4337430A9863052B
:1004F000E40AA0EB08000022FD0A44EA47540A304F
:1005000002D500200146E9E7010510196941DDE93E
:10051000084500196941BDE8F04DA2E7064C074DBA
:1005200006E0E06840F0010394E8070098471034C3
:10053000AC42F6D3FFF72EFE2C5D00084C5D0008A0
:100540002DE9F05F044688464FF0000947462068D1
:1005500003F03BFA8246206803F023FA8346BAF19F
:10056000000F02D1BBF1000F72D02068C06800F00C
:10057000007000B3607E01281DD1207E01281AD1B1
:1005800001270FE0334881450AD3606D40F0100029
:100590006065A06D40F00100A065012000F05EB82C
:1005A00009F1010920680068C0F380100028E9D033
:1005B000402021680860022F10D0206803F005FA5F
:1005C00060B1206803F0F2F940B920688168224ADE
:1005D000114041F01001816000BF00BF012F10D019
:1005E000206803F0DEF960B1206803F0DFF940B95C
:1005F00020688168184A114041F02001816000BFE5
:1006000000BF022F03D0032F03D10C2503E00825E0
:1006100001E0042500BF00BF01F0CAFC064612E05D
:1006200001F0C6FC801B05280DD920688068284091
:1006300048B1606D40F010006065A06D40F00100B1
:10064000A0650120AAE72068806828400028E7D13B
:100650000020A3E7000040A3C0FFFF7F30BCBDE83F
:10066000C09F000070B50446206803F09FF906465D
:10067000206803F0A0F998B396BB2068806800F06A
:100680000D0001280AD1206881681A4A1140891C8E
:10069000816000BF03202168086009E0606D40F0C0
:1006A00010006065A06D40F00100A065012070BDE4
:1006B00001F07EFC054614E001F07AFC401B0228A4
:1006C0000FD92068806800F0010050B1606D40F0E3
:1006D00010006065A06D40F00100A0650120E6E714
:1006E00005E02068806800F001000028E4D10020C7
:1006F000DDE70000C0FFFF7F38B504460020009012
:10070000206803F058F900284FD1206880682849F4
:10071000084048B1606D40F010006065A06D40F089
:100720000100A065012038BD206803F029F900BF51
:100730002048806800F0E07000F4000080B11E489E
:1007400000681E49B0FBF1F0401C00EB4000800047
:10075000009002E00098401E009000980028F9D117
:1007600001F026FC05461AE0206803F024F910B9D0
:10077000206803F005F901F01BFC401B02280ED98C
:100780002068006800F0010048B9606D40F010007A
:100790006065A06D40F00100A0650120C3E72068FE
:1007A000006800F001000028DED00020BBE7000058
:1007B0003F0000800003045010000020400D0300A3
:1007C00000B587B000BF00BF1948C06C40F0020000
:1007D0001749C8640846C06C00F00200019000BFD1
:1007E00000BF00BF00BF00BF0846C06C40F004005F
:1007F000C8640846C06C00F00400019000BF00BF50
:1008000000BFC814029001200390049002200590BC
:1008100002A9084801F0D8FA4FF4007002900020B5
:100820000390049002A9044801F0CEFA07B000BD7D
:1008300000100240000400480008004800BFFEE726
:10084000704710B5082001F0B1FA10BD10B50420B2
:1008500001F0ACFA10BD10B5082001F0A7FA10BDE8
:1008600010B5102001F0A2FA10BD10B5202001F043
:100870009DFA10BD10B5402001F098FA802001F0DB
:1008800095FA042001F092FA10BD00BFFEE70000C7
:10089000F8B504460D460020009000BF94F85000C3
:1008A000012801D10220F8BD012084F8500000BFCA
:1008B0002046FFF7D7FE06468EBB606D20F48850B9
:1008C00040F002006065206881681B4A114005F015
:1008D000804242F000421143816000BF13E0009863
:1008E000401C00900098B0F5912F0CD3606D20F063
:1008F000020040F01000606500BF002084F8500046
:1009000000BF0120CFE720688168C90F0029E6D128
:10091000606D20F0020040F00100606504E0FFE738
:10092000606D40F01000606500BF002084F850004A
:1009300000BF3046B7E70000C0FFFF3F2DE9FC5F76
:1009400005460C46002001900090FE49E068884270
:1009500000D000E000BF00BF95F85000012802D190
:10096000022000F04BBA012085F8500000BF286833
:1009700003F02BF8002879D167686068052815D83E
:100980006068022806D0032806D0042806D005286F
:1009900009D105E00C2708E0122706E0182704E03B
:1009A0004FF4807701E0062700BF00BF2868216868
:1009B00000F13003C7F3012C03EB8C02136807F03E
:1009C0001F0B4FF01F0C0CFA0BFC23EA0C0307F073
:1009D0001F0CC1F3846B0BFA0CFB43EA0B0313608F
:1009E00000BF286802F0F1FF8246286802F0D9FFB4
:1009F0008146BAF1000F2AD1B9F1000FFBD1A268EC
:100A00002168286802F0F8FF60692968C968C1F3A5
:100A1000C101490000FA01F82069042818D02868AB
:100A20002268216900F1600C0CEB8103D3F800C04F
:100A3000DFF814B30CEA0B0C02F0F84B4BF0004B50
:100A40004BEA080B4CEA0B0CC3F800C000BFA8E04F
:100A50000021286802F09CFFC0F3120038B9002181
:100A6000286802F095FFC0F3846008E0AEE1002141
:100A7000286802F08DFF90FAA0F0B0FA80F02168AB
:100A8000C1F3120119B92168C1F3846104E021683E
:100A900091FAA1F1B1FA81F1884204D10022114604
:100AA000286802F0C3FF0121286802F071FFC0F33B
:100AB000120030B90121286802F06AFFC0F3846097
:100AC00007E00121286802F063FF90FAA0F0B0FA75
:100AD00080F02168C1F3120119B92168C1F3846162
:100AE00004E0216891FAA1F1B1FA81F1884204D1C0
:100AF00000220121286802F099FF0221286802F0F3
:100B000047FFC0F3120030B90221286802F040FF0D
:100B1000C0F3846007E00221286802F039FF90FAF0
:100B2000A0F0B0FA80F02168C1F3120119B9216870
:100B3000C1F3846104E0216891FAA1F1B1FA81F175
:100B4000884204D100220221286802F06FFF0321AD
:100B5000286802F01DFFC0F3120030B90321286895
:100B600002F016FFC0F3846007E00321286802F05A
:100B70000FFF90FAA0F0B0FA80F02168C1F31201E3
:100B800019B92168C1F3846104E0216891FAA1F1E7
:100B9000B1FA81F1884204D100220321286802F0D1
:100BA00045FF286802F007FF002872D12868E26834
:100BB0002168D0F8B030C1F3120C23EA0C0302F024
:100BC000180BDFF888C12CFA0BFC0CEA010C43EA85
:100BD0000C03C0F8B03000BF5A49E068884258D1D1
:100BE0002368C3F312031BB92368C3F3846304E0CF
:100BF000236893FAA3F3B3FA83F35B1C03F01F0398
:100C0000092B3ED82368C3F312031BB92368C3F32F
:100C1000846304E0236893FAA3F3B3FA83F35B1CC1
:100C200003F01F034FF0010C0CFA03FC2368C3F31D
:100C300012031BB92368C3F3846304E0236893FAA7
:100C4000A3F3B3FA83F35B1C03F01F034CEA836C3A
:100C50002368C3F312031BB92368C3F3846304E05E
:100C6000236893FAA3F3B3FA83F35B1C03F01F0327
:100C700003EB43034FF0000B4BEA03534CEA03032F
:100C80003FE02368C3F3120323B92368C3F38463EB
:100C900005E03BE0236893FAA3F3B3FA83F35B1C0C
:100CA00003F01F034FF0010C0CFA03FC2368C3F39D
:100CB00012031BB92368C3F3846304E0236893FA27
:100CC000A3F3B3FA83F35B1C03F01F034CEA836CBA
:100CD0002368C3F312031BB92368C3F3846304E0DE
:100CE000236893FAA3F3B3FA83F35B1C03F01F03A7
:100CF0000A3B03EB43034FF0007B4BEA03534CEA00
:100D000003031946A268286802F076FE104920689D
:100D1000084038B300BF0F48806800F0E07600BF9D
:100D20000D49206888422FD106F4000060BB0B49B2
:100D30002868884249D146F40001064802F070FE56
:100D4000074810E000007F4000F0FF03FFFF0700AE
:100D50000000088000030450000052C70000045047
:100D60001000002020E000681F49B0FBF1F0401C9B
:100D700000EB40008000009002E00098401E0090D0
:100D800000980028F9D120E01849206888420CD149
:100D900006F0807048B916492868884215D146F097
:100DA0008071144802F03CFE0FE01349206888422D
:100DB0000BD106F4800040B90D492868884204D15F
:100DC00046F480010B4802F02BFE05E0686D40F010
:100DD000200068650120019000BF002085F85000C8
:100DE00000BF0198BDE50000400D0300000084CB6A
:100DF0000000045000030450010000803CBCBDE82A
:100E0000C09F000070B504460CB9012070BD606D34
:100E100040F00200606503212046FFF791FB054684
:100E20002068C06840F400102168C86035B92046C9
:100E3000FFF718FC05460DB9012060652068406881
:100E40006FF30A002168486040F2FF702168086073
:100E50002068806820F0A040216888602068806851
:100E600040F00050216888602068C0684D49084003
:100E70002168C8602068C06840F000402168C860F0
:100E8000206800696FF30A002168086120684069E2
:100E900000F04040216848612068806900F0784097
:100EA000216888612068006A00F0F02021680862EB
:100EB0002068406A00F0FF20216848622068806A4C
:100EC00000F0FF20216888622068006B36490840E6
:100ED000216808632068406B334910390840216855
:100EE00048632068806B3049103908402168886366
:100EF0002068C06B40F2DF7188432168C8632068B6
:100F0000006E2A490840216808662068406E27491B
:100F10000840216848662068806E2449084021689E
:100F200088662068C06E214908402168C86620682C
:100F3000D0F8A0006FF312002168C1F8A00020686B
:100F4000D0F8A4006FF312002168C1F8A400206853
:100F5000D0F8B0006FF312002168C1F8B00020682B
:100F6000D0F8B40020F07F102168C1F8B400104818
:100F700002F021FD48B90F4800680F4908400C49AC
:100F8000C1F80803204600F017F90020A065E065CD
:100F900000212166606500BF84F8500000BF28462C
:100FA00034E7000004800080300882E000F0FF0396
:100FB0000000045008030450FFFF00FE01460868CB
:100FC000006C70472DE9F84304464FF000080020FC
:100FD000009014B90120BDE8F883206920B12020D9
:100FE000005D012800D100BF606D30B9204600F0DF
:100FF00007F90020A06584F8500020688168C1F3DB
:10100000407131B120688168644A1140816000BF3D
:1010100000BF206802F0D4FCB0B920688168604A43
:10102000114041F08051816000BF5E4800685E4918
:10103000B0FBF1F0401C4000009002E00098401E20
:10104000009000980028F9D1206802F0B9FC48B956
:10105000606D40F010006065A06D40F00100A0657B
:101060004FF00108206802F0B0FC0646606D00F009
:10107000100000287BD1002EFCD1606D20F4807020
:1010800040F002006065206802F095FC68B94748AE
:1010900002F091FC48B960684549896821F47C11E7
:1010A0000143434A916000BF00BF607E616B41EA2B
:1010B0004030E1680843A16808432021095D40EA07
:1010C00001452020005D012803D1A08C401E45EA87
:1010D0004045A06A28B1208D00F47070E16A084391
:1010E00005432068C0683349084028432168C86028
:1010F000206802F056FC07462EBB27BB207E00214D
:1011000041EA803194F8300041EA40052068C06827
:1011100044F20201884328432168C86094F83800EB
:10112000012811D1E06B40F00101206C0843616C93
:101130000843A16C08432168096940F2FC7291439D
:1011400008432168086105E02068006920F001007B
:1011500021680861206901280AD12068006B20F00D
:101160000F00E169491E08432168086306E00CE0AE
:101170002068006B20F00F0021680863606D20F08C
:10118000020040F00100606505E0606D40F0100075
:1011900060654FF0010840461DE70000C0FFFF5F9B
:1011A000C0FFFF7F10000020400D0300000004502E
:1011B0000003045007C0F0FF10B504460E48C06A93
:1011C00040F400500C49C8620846C06A20F4005040
:1011D000C8620846C06C20F40050C864012107486A
:1011E00000F00AFD0221054800F006FD0421034835
:1011F00000F002FD10BD0000001002400008004891
:1012000010B586B0044600BF2048C06C40F40050C2
:101210001E49C8640846C06C00F40050009000BF2E
:1012200000BF1A488830006840F04050C1F888007C
:1012300000BF0846C06C40F00400C8640846C06C9B
:1012400000F00400009000BF00BF012001900320C7
:1012500002900020039001A90D4800F0B5FD022086
:101260000190032002900020039001A9084800F09B
:10127000ABFD04200190032002900020039001A9FF
:10128000034800F0A1FD06B010BD000000100240B0
:10129000000800482DE9F04104460E466069082820
:1012A00001D108250CE02068C06800F0010030B1D1
:1012B000606D40F0200060650120BDE8F0810425EC
:1012C00000F076FE074616E0701CA0B100F070FE3C
:1012D000C01BB04200D876B920680068284050B9D9
:1012E000606D40F00400606500BF002084F850008D
:1012F00000BF0320E1E72068006828400028E3D011
:10130000606D40F400706065206802F063FB98B186
:10131000607E88B92068006800F0080008280BD1BA
:10132000606D20F480706065606D00F4805018B9C5
:10133000606D40F0010060652068D0F80C80082DD9
:1013400003D108202168086005E008F4804010B946
:101350000C20216808600020AFE770B504462068C3
:1013600002F033FB00283FD100BF94F85000012861
:1013700001D1022070BD012084F8500000BF20463A
:10138000FFF7BAF9054655BB606D40F60161884329
:1013900040F480706065606D00F48050B0F5805F4F
:1013A00004D1A06D20F00600A06501E00020A0653A
:1013B0001C202168086000BF002084F8500000BF96
:1013C0002068C06800F0007028B1606D20F4005003
:1013D00040F480506065206802F006FB05E000BF25
:1013E000002084F8500000E002252846C2E710B52E
:1013F000024692F82030012B01D0022B1CD101F0C3
:10140000010028B11068806840F080001468A06076
:1014100001F0020028B11068806840F400401468B0
:10142000A06001F0040028B11068806840F400005A
:101430001468A060002010BD506A40F48020506203
:101440000120F8E7F0B504460D461E4694F82070DA
:1014500020688368A86800B900E000BF012F01D0B0
:10146000022F7DD103F0806030B903F0006018B91D
:1014700003F0805000287ED0C3F301610120884032
:101480003060A86860B9B5F800C0E86840EA4C5C14
:10149000206800F5C07000EB0110C0F800C00FE03C
:1014A000D5E901C040EACC00D5F80CC040EA0C00F8
:1014B000D4F800C00CF5C07C0CEB011CCCF800008B
:1014C000D5F810C0206800F5C07000EB0110C0F81E
:1014D00004C0287D01280ED1206800F5C07000EB03
:1014E0000110406840F4807C206800F5C07000EB7B
:1014F0000110C0F804C0D079000692F806C040EA96
:101500000C4092F805C040EA0C2092F804C040EA72
:101510000C00D4F800C00CF5C07C0CEB011CCCF81E
:101520000C00D078000692F802C040EA0C4092F815
:1015300001C040EA0C2092F800C040EA0C00D4F848
:1015400000C00CF5C07C0CEB011CCCF80800206836
:1015500000F5C07000EB0110006840F0010C01E0E4
:101560000FE008E0206800F5C07000EB0110C0F843
:1015700000C00020F0BD606A40F4001060620120ED
:10158000F8E7606A40F4802060620120F2E7F0B57D
:1015900004460A46216894F82050012D01D0022DFE
:1015A00074D1D1F8000240F00100C1F80002107DB2
:1015B00000F01F06012000FA06F3D1F81C02984340
:1015C000C1F81C02D069C8B9D1F80C029843C1F81F
:1015D0000C02908880B2968940EA064601F51070A8
:1015E000576940F83760108880B2168940EA06468D
:1015F00001F51070576900EBC7004660D0690128FB
:1016000019D1D1F80C021843C1F80C02908880B2AD
:10161000168840EA064601F51070576940F83760B1
:10162000908980B2168940EA064601F51070576924
:1016300000EBC7004660906928B9D1F804029843CE
:10164000C1F8040204E0D1F804021843C1F804020E
:10165000106928B9D1F814029843C1F8140204E0C3
:10166000D1F814021843C1F81402106A012804D1F9
:10167000D1F81C021843C1F81C02D1F8000220F076
:101680000100C1F800020020F0BDFFE7606A40F4ED
:10169000802060620120F7E710B50246002092F832
:1016A0002030012B01D0022B09D121B91468E46844
:1016B00004F0030003E01468246904F0030010BD83
:1016C00070B5044694F82050012D01D0022D7DD133
:1016D00051B92068C06800F0030080B9606A40F426
:1016E00000106062012070BD2068006900F00300F6
:1016F00028B9606A40F4001060620120F3E72068B6
:1017000000F5D87000EB0110006800F00400906054
:10171000906840B9206800F5D87000EB01100068AF
:10172000400D106007E0206800F5D87000EB011054
:101730000068C0085060206800F5D87000EB011008
:10174000006800F00200D060206800F5D87000EB5F
:101750000110406800F00F00082802D30820106133
:1017600008E0206800F5D87000EB0110406800F038
:101770000F001061206800F5D87000EB0110406880
:1017800000F47F40000A9061206800F5D87000EBFB
:1017900001104068000C5061206800F5D87000EB23
:1017A000011080681870206800F5D87000EB0110F7
:1017B000806800F47F40000A5870206800F5D870F7
:1017C00000EB0110806800F47F0000E03CE0000CBA
:1017D0009870206800F5D87000EB01108068000E4A
:1017E000D870206800F5D87000EB0110C06818713F
:1017F000206800F5D87000EB0110C06800F47F404D
:10180000000A5871206800F5D87000EB0110C0681C
:1018100000F47F00000C9871206800F5D87000EB90
:101820000110C068000ED87131B92068C06840F05E
:1018300020002668F06005E02068006940F0200084
:101840002668306100204EE7606A40F480206062C4
:10185000012048E70146002091F82020012A01D00C
:10186000022A11D10B689B6803F0806303B1401C0E
:101870000B689B6803F0006303B1401C0B689B6816
:1018800003F0805303B1401C704770B504460CB997
:10189000012070BD94F8200010B9204600F0B0F887
:1018A0002068006840F001002168086000F080FBBB
:1018B00005460DE000F07CFB401B0A2808D9606A51
:1018C00040F400306062052084F820000120E0E749
:1018D0002068406800F001000028EBD02068006814
:1018E00020F002002168086000F062FB05460DE070
:1018F00000F05EFB401B0A2808D9606A40F4003003
:101900006062052084F820000120C2E7206840685A
:1019100000F002000028EBD1207E012806D12068CB
:10192000006840F080002168086005E020680068D9
:1019300020F0800021680860607E012806D12068C0
:10194000006840F040002168086005E020680068F9
:1019500020F0400021680860A07E012806D12068A0
:10196000006840F020002168086005E020680068F9
:1019700020F0200021680860E07E012806D1206860
:10198000006820F010002168086005E02068006809
:1019900040F0100021680860207F012806D12068EF
:1019A000006840F008002168086005E020680068D1
:1019B00020F0080021680860607F012806D12068B7
:1019C000006840F004002168086005E020680068B5
:1019D00020F0040021680860D4E90201084321696D
:1019E0000843616908436168491E08432168C8616A
:1019F00000206062012084F82000002049E70000F8
:101A000010B586B0044634492068884261D100BFD1
:101A100000BF3248C06C40F001003049C86408463D
:101A2000C06C00F00100009000BF00BF00BF00BF0D
:101A300000BF0846C06C40F00100C8640846C06C96
:101A400000F00100009000BF00BF00BF00BF00BF5A
:101A50000846C06C40F00400C8640846C06C00F042
:101A60000400009000BF00BF00BF00BF0846806DAB
:101A700040F0007088650846806D00F000700090AE
:101A800000BF00BF88140190022002900120039043
:101A9000022004900920059001A9C00600F094F9E5
:101AA0004FF400600190022002900020039001A9F1
:101AB0004FF0904000F088F94FF400600190012051
:101AC000029000200390049001A9054800F07CF9E1
:101AD00000BF06B010BD00000064004000100240CE
:101AE0000008004870B5044694F82000012822D16F
:101AF000022084F820002068006820F0010021689E
:101B0000086000F055FA05460DE000F051FA401B60
:101B10000A2808D9606A40F400306062052084F821
:101B20002000012070BD2068406800F001000028FE
:101B3000EBD16062F6E7606A40F400206062012049
:101B4000F0E70146002291F82500022808D0042081
:101B5000C86300BF002081F8240000BF0120704747
:101B60000868006820F00E000B68186008680068BC
:101B700020F001000B68186091F8440000F01C038D
:101B8000012098400B6C5860012081F8250000BFAF
:101B9000002081F8240000BF1046E0E770B504463D
:101BA000002594F82500022803D00420E0630125D5
:101BB00020E02068006820F00E002168086020689E
:101BC000006820F001002168086094F8440000F0EB
:101BD0001C0101208840216C4860012084F8250008
:101BE00000BF002084F8240000BFA06B10B1204685
:101BF000A16B8847284670BDF0B50B46002178E000
:101C000001258D4005EA0302002A71D03B4D8E0864
:101C100055F826408D072E0F0F25B5402C40B0F10A
:101C2000904F01D1002514E0354DA84201D1012586
:101C30000FE0344DA84201D102250AE0324DA842FE
:101C400001D1032505E0314DA84201D1042500E072
:101C500007258E07360FB540A54223D12C4D2D68A0
:101C600095432B4E3560351D2D689543361D3560E7
:101C7000274D0C352D689543254E0C363560351FA4
:101C80002D689543361F35608D072E0F0F2505FAF9
:101C900006F41A4D8E0855F82650A543174E8F08A6
:101CA00046F8275005684F000326BE4035430560BF
:101CB000CE0800F1200555F826504E07F70E0F26E6
:101CC000BE40B543CF0800F1200646F8275085688E
:101CD0004F000326BE40B5438560466801258D4010
:101CE000AE434660C5684F000326BE40B543C5609D
:101CF000491C23FA01F5002D82D1F0BD08000140F6
:101D00000004004800080048000C0048001000488B
:101D10000004014010B50446082C06D101202249D8
:101D20000870062000F094F93DE0042C06D1012053
:101D30001D494870072000F08BF934E0082C06D1CB
:101D4000012019498870082000F082F92BE0102C3E
:101D500006D101201449C870092000F079F922E069
:101D6000202C06D10120104908710A2000F070F9DA
:101D700019E0402C06D101200B494871172000F0D2
:101D800067F910E0802C06D10120074988711720DF
:101D900000F05EF907E0042C05D101200249C8716A
:101DA000172000F055F910BD2400002010B504469E
:101DB00004480068204020B1024804602046FFF734
:101DC000A9FF10BD1404014078B503460A4600215E
:101DD000C5E001268E40156805EA0604002C73D084
:101DE000157905F00305012D04D0157905F00305DB
:101DF000022D13D198684E000325B540A8434E002C
:101E0000D568B54028439860586801258D40A8439F
:101E10001579C5F300158D4028435860157905F0F4
:101E20000305032D09D0D8684E000325B540A8430B
:101E30004E009568B5402843D860157905F0030534
:101E4000022D13D1CE0803F1200555F826004D07C9
:101E5000EE0E0F25B540A8434E07F60E1569B540A6
:101E60002843CE0803F1200545F8260018684E00E7
:101E70000325B540A843157905F003054E00B5408C
:101E800028431860556805F44035002D66D000BF22
:101E9000364D2D6E45F00105344E356635462D6EB6
:101EA00005F00105009500BF00BF4FEAB6358E086A
:101EB00055F826008D072E0F0F25B540A843B3F126
:101EC000904F02D1002515E048E0294DAB4201D1E9
:101ED00001250FE0274DAB4201D102250AE0264D36
:101EE000AB4201D1032505E0244DAB4201D10425CD
:101EF00000E007258E07360FB5402843204D8E0899
:101F000045F826001F4D2868A043556805F4801544
:101F100005B120431B4D28602D1D2868A04355683E
:101F200005F4001505B12043164D2D1D2860154DF3
:101F30002D1F2868A043556805F4003505B12043DE
:101F4000104D2D1F28602D1F2868A043556805F4EB
:101F5000803505B120430B4D083D2860491C1568AC
:101F6000CD40002D7FF435AF78BD00000010024059
:101F70000004004800080048000C00480010004819
:101F80000800014008040140024613690B400BB1F0
:101F9000012000E0002070470AB1816100E0816209
:101FA0007047000001480068000C7047002004E002
:101FB0000148006870470000700000200348006876
:101FC00003490978084401490860704770000020FF
:101FD0007800002010B50024072000F0B1F80F2091
:101FE00000F008F808B1012401E000F02FF82046C5
:101FF00010BD000070B50446002511480078D8B126
:102000000F4800784FF47A71B1FBF0F00D49096880
:10201000B1FBF0F6304600F0A7FD58B9102C07D2FE
:1020200000222146501E00F049F80748046004E0F1
:10203000012502E0012500E00125284670BD0000D1
:10204000780000201000002074000020704700007D
:1020500010B501460846002817DB00F01F030122D7
:102060009A400B4B440943F8242000BF00BF00BF37
:10207000BFF34F8F00BF00BF00BF00BF00BF00BF56
:10208000BFF36F8F00BF00BF00BF00BF10BD0000D7
:1020900080E100E00146084600280DDB00BF00BFDC
:1020A00000F01F0301229A4043099B0003F1E02343
:1020B000C3F8002100BF00BF00BF70472DE9F05FEB
:1020C00080460D461646002702F048F80746394676
:1020D0002A46334601F00700C0F1070ABAF1040F9F
:1020E00002D94FF0040A01E0C0F1070AD14600F11D
:1020F000040ABAF1070F02D24FF0000A01E0A0F182
:10210000030AD4464FF0010A0AFA09FAAAF1010AB1
:102110000AEA020A0AFA0CFA4FF0010B0BFA0CFB5E
:10212000ABF1010B0BEA030B4AEA0B0421464046D4
:1021300002F01CF800F000B830BCBDE8C09F000001
:1021400000BF00F00702064B19684FF6FF03194065
:10215000044B0B4343EA0221014B196000BF704757
:102160000CED00E00000FA050248006800F4C060D1
:1021700070470000007000402DE9F04104460D4614
:1021800014B90120BDE8F0816348006800F0070041
:10219000A8420ED26048006820F0070028435E493C
:1021A00008600846006800F00700A84201D001203E
:1021B000E8E7207800F0020002280ED15749A06815
:1021C000896801F0F001884207D95448806820F0FE
:1021D000F000A168084351498860207800F00100B0
:1021E00078B36068032806D14C48006800F000709E
:1021F000D8B90120C6E76068022806D147480068C0
:1022000000F4003088B90120BCE7606830B9434869
:10221000006800F0020040B90120B3E73F480068C1
:1022200000F4806008B90120ACE73C48806820F0E9
:1022300003006168084339498860FFF7B9FE064624
:1022400009E010E0FFF7B4FE801B41F288318842BC
:1022500001D9032096E73148806800F00C006168DE
:10226000B0EB810FEED1207800F0020002280ED1F1
:102270002A49A068896801F0F001884207D22748FE
:10228000806820F0F000A168084324498860224853
:10229000006800F00700A8420ED91F48006820F02F
:1022A000070028431C4908600846006800F0070042
:1022B000A84201D0012065E7207800F0040004283E
:1022C00007D11648806820F4E060E16808431349AC
:1022D0008860207800F00800082808D10F4880683E
:1022E00020F46050216940EAC1000C49886000F088
:1022F0001DF80A498968C1F30311094A515C01F0CC
:102300001F01C8400749086007480068FFF772FED0
:102310000746384636E70000002002400010024021
:10232000E45C00081000002074000020F0B50023D9
:102330000020DFF8D4C0DCF808C00CF00C01DFF896
:10234000C8C0DCF80CC00CF0030719B10C291ED171
:10235000012F1CD1DFF8B0C0DCF800C00CF0080C75
:10236000BCF1000F06D1DFF8A0C0DCF894C0CCF3BC
:10237000032305E0DFF890C0DCF800C0CCF30313C2
:10238000DFF888C05CF8233041B9184606E004291C
:1023900001D11F4802E0082900D11E480C2932D182
:1023A000DFF864C0DCF80CC00CF00304012C09D089
:1023B000022C02D0032C04D101E0154A04E0154A96
:1023C00002E000BF1A4600BF00BFDFF83CC0DCF8E7
:1023D0000CC0CCF3021C0CF10106DFF82CC0DCF8B9
:1023E0000CC0CCF3062C0CFB02FCBCFBF6F2DFF8B5
:1023F00018C0DCF80CC0CCF3416C0CF1010C4FEAB6
:102400004C05B2FBF5F0F0BD00100240FC5C00088A
:102410000024F40000127A002DE9F843044614B9B0
:102420000120BDE8F883F948806800F00C06F74801
:10243000C06800F00307207800F01000102877D162
:102440001EB10C2E76D1012F74D1F048006800F037
:10245000020018B1A06908B90120E2E7EB48216A3F
:10246000006800F0080020B1E848006800F0F000C3
:1024700005E0E6489430006800F47060000981428D
:102480001FD9206A01F08EFB08B10120C9E700BF07
:10249000DE48006840F00800DC4908600846006833
:1024A00020F0F000216A0843D849086000BF0846C0
:1024B000406820F47F40E16940EA0120D349486048
:1024C0001FE000BFD148006840F00800CF49086015
:1024D0000846006820F0F000216A0843CB490860F4
:1024E00000BF0846406820F47F40E16940EA0120CF
:1024F000C64948602EB9206A01F054FB08B101209A
:102500008FE7FFF713FFC1498968C1F30311C04A80
:10251000515C01F01F01C840BE490860BE48006818
:10252000FFF768FD8046B8F1000F4ED0404678E7CF
:102530004BE0FFE7A06980B3B448006840F00100B9
:10254000B2490860FFF734FD054606E0FFF730FDAD
:10255000401B022801D9032063E7AC48006800F063
:1025600002000028F2D000BFA848006840F0080030
:10257000A64908600846006820F0F000216A084378
:10258000A249086000BF0846406820F47F40E16926
:1025900040EA01209D49486017E0FFE79B4800683A
:1025A00020F0010099490860FFF702FD054606E0AA
:1025B000FFF7FEFC401B022801D9032031E79348B6
:1025C000006800F002000028F2D1207800F001003D
:1025D00000285CD0082E03D00C2E0AD1032F08D17E
:1025E0008A48006800F4003088B3606878BB012036
:1025F00017E700BF6068B0F5803F06D183480068E8
:1026000040F48030814908601AE06068B0F5A02F7E
:102610000BD17E48006840F480207C490860084661
:10262000006840F4803008600AE07848006820F4D0
:102630008030764908600846006820F480200860F1
:1026400000BF606890B1FFF7B3FC054607E01EE0ED
:10265000FFF7AEFC401B642801D90320E1E66B487C
:10266000006800F400300028F2D010E0FFF7A0FC72
:10267000054606E0FFF79CFC401B642801D90320B7
:10268000CFE66248006800F400300028F2D12078DC
:1026900000F00200022852D1042E03D00C2E14D1D7
:1026A000022F12D15948006800F4806018B1E06828
:1026B00008B90120B5E65548406820F0F850217C63
:1026C00040EA01605149486039E0E06800B34F4892
:1026D000006840F480704D490860FFF769FC0546CA
:1026E00006E0FFF765FC401B022801D9032098E6AD
:1026F0004648006800F480600028F2D043484068F3
:1027000020F0F850217C40EA01604049486016E022
:102710003E48006820F480703C490860FFF748FCA0
:10272000054606E0FFF744FC401B022801D90320C0
:1027300077E63648006800F480600028F2D12078FF
:1027400000F00800082836D16069D0B12F489430D5
:10275000006840F001002D49C1F89400FFF728FC03
:10276000054606E0FFF724FC401B022801D90320A0
:1027700057E626489430006800F002000028F1D0A7
:1027800019E022489430006820F001001F49C1F888
:102790009400FFF70DFC054606E0FFF709FC401B1F
:1027A000022801D903203CE618489430006800F064
:1027B00002000028F1D1207800F00400042872D132
:1027C0004FF000091148806D00F0805078B900BFCB
:1027D0000E48806D40F080500C4988650846806D39
:1027E00000F08050009000BF00BF4FF001090B487F
:1027F000006800F4807000BB0848006840F48070F6
:1028000006490860FFF7D4FB054610E000100240BF
:10281000E45C0008100000207400002000700040FC
:10282000FFF7C6FB401B022801D90320F9E5CA487F
:10283000006800F480700028F2D000BFA068012872
:1028400008D1C648006840F00100C4499039C1F879
:10285000900021E0A06805280FD1C048006840F032
:102860000400BE499039C1F890000846D0F89000A5
:1028700040F00100C1F890000EE0B848006820F078
:102880000100B6499039C1F890000846D0F8900090
:1028900020F00400C1F8900000BFA068A0B1FFF7CD
:1028A00087FB054609E02EE0FFF782FB401B41F263
:1028B0008831884201D90320B3E5A848006800F0B8
:1028C00002000028F0D012E0FFF772FB054608E096
:1028D000FFF76EFB401B41F28831884201D903208B
:1028E0009FE59E48006800F002000028F0D1B9F191
:1028F000010F07D199489038806D20F0805097499A
:102900009039886500BF207800F02000202838D159
:10291000606AD8B191480830006840F001008F49E2
:102920009039C1F89800FFF743FB054606E0FFF732
:102930003FFB401B022801D9032072E5874808307D
:10294000006800F002000028F1D01AE08348083047
:10295000006820F0010081499039C1F89800FFF724
:1029600027FB054606E0FFF723FB401B022801D9A1
:10297000032056E579480830006800F0020000287E
:10298000F1D1A06A00287DD0A06A02287BD17348CB
:102990009038C76807F00301E06A814225D107F04B
:1029A0007001206B401EB1EB001F1ED107F4FE41E9
:1029B000606BB1EB002F18D107F078413820005D33
:1029C000B1EBC06F11D107F4C001A08F0122C2EB9F
:1029D0005000B1EB405F08D107F0C0614020005DBE
:1029E000C2EB5000B1EB406F66D00C2E62D05B485A
:1029F0009038006800F0806008B1012011E5574868
:102A00009038006820F08070544990390860FFF7D2
:102A1000CFFA054606E0FFF7CBFA401B022801D9A2
:102A20000320FEE44D489038006800F00070002854
:102A3000F1D1D4E90B10401E41EA0011606B41EA6C
:102A40000021A08F0122C2EB500041EA40514020FA
:102A5000005DC2EB500041EA40613820005D41EA70
:102A6000C0603E499039C9683D4A114008433B491E
:102A70009039C8600846006840F0807008600846D9
:102A8000C06801E053E03DE040F08070C860FFF7AF
:102A90008FFA054606E0FFF78BFA401B022801D9A2
:102AA0000320BEE42D489038006800F00070002834
:102AB000F1D04FE00120B4E428489038006800F0DD
:102AC0000070A0BB25489038006840F08070234912
:102AD000903908600846C06840F08070C860FFF711
:102AE00067FA054606E0FFF763FA401B022801D9A2
:102AF000032096E419489038006800F00070002820
:102B0000F1D027E00C2E23D014489038006820F034
:102B10008070124990390860FFF74AFA054607E0CD
:102B2000FFF746FA401B022802D9032079E411E09E
:102B30000A489038006800F000700028F0D107487B
:102B40009038C0680749084004499039C86001E0DE
:102B5000012066E4002064E4007000409010024010
:102B60008C809D01FCFFEEFE70B504462546681E74
:102B7000B0F1807F01D301200FE0681E4FF0E0210B
:102B800048610F214FF0FF3001F0F0FA00204FF0C4
:102B9000E021886107200861002070BD7047704700
:102BA0007047000010B504464948007800F08000E6
:102BB000002842D14749206888423ED144480078E5
:102BC00000F04000D0B14248007840F08000404919
:102BD00008700021404800F07BFC404908803E48D6
:102BE0000068006A20F00A003B49096808623A4818
:102BF0000068006A3849096808621EE0002034490C
:102C00000870364908803248007840F0400030496A
:102C1000087000203049096848622F480068006A3F
:102C200020F00A002C49096808622B480068006AF5
:102C300040F002002849096808622948007800F03D
:102C40008000002842D12068B0F1804F3ED1244856
:102C5000007800F04000D0B12148007840F08000BA
:102C60001F49087000211F4800F032FC1E490880EF
:102C70001C480068006A20F00A001A4909680862C6
:102C800018480068006A1749096808621EE00020B9
:102C900013490870144908801148007840F040003A
:102CA0000F49087000200F49096848620D48006804
:102CB000006A20F00A000B490968086209480068A8
:102CC000006A40F0020007490968086210BD000070
:102CD0007C000020002C0140300400207E000020F9
:102CE000800000207C040020820000202DE9F041BB
:102CF00004460D461646002700BF94F83C00012804
:102D000002D10220BDE8F081012084F83C0000BF20
:102D100096B9EB68D5E90012206801F0B7F8206891
:102D2000806920F00C002168886120688069A968AA
:102D300008432168886141E0042E13D1EB68D5E98E
:102D40000012206801F0D0F82068806920F440600B
:102D50002168886120688069A96840EA01202168AB
:102D600088612BE0082E12D1EB68D5E900122068AB
:102D700001F0D7F82068C06920F00C002168C86114
:102D80002068C069A96808432168C86116E00C2E54
:102D900013D1EB68D5E90012206801F0DEF8206855
:102DA000C06920F440602168C8612068C069A968D2
:102DB00040EA01202168C86100E0012700BF00202F
:102DC00084F83C0000BF38469CE710B5044602205A
:102DD00084F83D0000BF2068006A41F211110840EC
:102DE00050B92068006A8910084028B92068006836
:102DF00020F001002168086000BF204600F05CF868
:102E0000002084F8480000BF84F83E0000213F20E5
:102E100001554020015541200155422001554320D4
:102E2000015500BF00BF002084F844004520015533
:102E3000462001554720015500BF002084F83D0081
:102E400000BF84F83C0000BF10BD10B504460CB9AB
:102E5000012010BD94F83D0028B9002084F83C0002
:102E6000204600F02BF8022084F83D00211D206848
:102E700000F0C0FF012084F8480000BF84F83E0045
:102E800001213F200155402001554120015542209C
:102E900001554320015500BF00BF012084F84400C4
:102EA00045200155462001554720015500BF01200E
:102EB00084F83D000020CCE77047000010B586B0D4
:102EC00004463F492068884239D12068884236D17B
:102ED00000BF00BF3B48006E40F4006039490866FF
:102EE0000846006E00F40060009000BF00BF00BF05
:102EF00000BF00BF0846C06C40F00100C86408462F
:102F0000C06C00F00100009000BF00BF00BF88153A
:102F100001900220029000200390032004900120E1
:102F2000059001A94FF09040FEF74EFF03220021CB
:102F30001B20FFF7C3F81B20FFF7ACF800BF206889
:102F4000B0F1804F3AD12068B0F1804F36D100BF48
:102F500000BF1C48806D40F001001A498865084692
:102F6000806D00F00100009000BF00BF00BF00BFF7
:102F700000BF0846C06C40F00100C8640846C06C41
:102F800000F00100009000BF00BF00BF01200190D1
:102F9000022002900020039003200490012005905D
:102FA00001A94FF09040FEF70FFF032200211C20E3
:102FB000FFF784F81C20FFF76DF800BF06B010BDC6
:102FC000002C0140001002402DE9F04304460D465C
:102FD000002715B994F83E0015E0042D02D13F20DA
:102FE000005D10E0082D02D14020005D0BE00C2DAB
:102FF00002D14120005D06E0102D02D14220005D8B
:1030000001E04320005D804615B994F844000BE0D0
:10301000042D02D14520005D06E0082D02D1462096
:10302000005D01E04720005D8146B8F1010F02D14B
:10303000B9F1010F02D00120BDE8F0831DB90220D3
:1030400084F83E001AE0042D03D102213F200155EF
:1030500014E0082D03D10221402001550EE00C2D73
:1030600003D102214120015508E0102D03D1022196
:103070004220015502E00221432001551DB90220E2
:1030800084F844000EE0042D03D1022145200155AF
:1030900008E0082D03D102214620015502E002215B
:1030A0004720015535B1042D0BD0082D10D00C2D23
:1030B0001CD114E02068C06840F002002168C8609C
:1030C00016E02068C06840F004002168C8600FE086
:1030D0002068C06840F008002168C86008E02068E7
:1030E000C06840F010002168C86001E0012700BFFF
:1030F00000BF07BB01222946206800F0B5FE124937
:103100002068884207D02068B0F1804F03D00F4973
:103110002068884210D1206880680D4900EA0106C5
:10312000062E0FD0B6F5803F0CD02068006840F026
:1031300001002168086005E02068006840F0010097
:1031400021680860384677E7002C014000400140C4
:103150000700010070B504460D46002635B1042D68
:103160000BD0082D10D00C2D1CD114E02068C068A5
:1031700020F002002168C86016E02068C06820F0D6
:1031800004002168C8600FE02068C06820F00800D3
:103190002168C86008E02068C06820F0100021683D
:1031A000C86001E0012600BF00BF002E4BD1002205
:1031B0002946206800F058FE00BF2068006A41F2EE
:1031C0001111084050B92068006A8910084028B9D8
:1031D0002068006820F001002168086000BF1DB968
:1031E000012084F83E001AE0042D03D101213F2084
:1031F000015514E0082D03D10121402001550EE0B6
:103200000C2D03D101214120015508E0102D03D1DF
:1032100001214220015502E00121432001551DB941
:10322000012084F844000EE0042D03D10121452043
:10323000015508E0082D03D101214620015502E087
:10324000012147200155304670BD70B50446206805
:10325000C5682068066906F00200022819D105F049
:103260000200022815D1401F216808610120207743
:103270002068806900F0030018B12046FFF792FC37
:1032800005E0204600F0A7F8204600F0A5F8002051
:10329000207706F00400042819D105F00400042862
:1032A00015D1C04321680861022020772068806919
:1032B00000F4407018B12046FFF774FC05E020468A
:1032C00000F089F8204600F087F80020207706F00B
:1032D0000800082819D105F00800082815D1C043B6
:1032E00021680861042020772068C06900F003008D
:1032F00018B12046FFF756FC05E0204600F06BF8B9
:10330000204600F069F80020207706F01000102811
:1033100019D105F01000102815D1C04321680861AB
:10332000082020772068C06900F4407018B120465A
:10333000FFF738FC05E0204600F04DF8204600F08D
:103340004BF80020207706F0010048B105F001009D
:1033500030B16FF0010021680861204600F03EF8AE
:1033600006F08000802809D105F08000802805D172
:10337000C043216808612046FFF711FC06F4807005
:10338000B0F5807F0AD105F08000802806D16FF467
:103390008070216808612046FFF700FC06F04000BD
:1033A000402809D105F04000402805D1C0432168DC
:1033B0000861204600F0A5F806F02000202809D179
:1033C00005F02000202805D1C0432168086120466F
:1033D000FFF7E6FB70BD704770470000354A016893
:1033E000914230D1016891422DD13349097801F0E1
:1033F000800111BB3049097801F04001E9B12E4943
:10340000097801F03F013F2918D12C490968096A60
:1034100021F00A01294A1268116228490968096ADB
:10342000264A126811622449097841F08001224A33
:1034300011704FF6FF71224A118004E01E4909788D
:10344000491C1D4A11700168B1F1804F31D10168EA
:10345000B1F1804F2DD11B49097801F0800111BBDA
:103460001849097801F04001E9B11649097801F0DD
:103470003F013F2918D114490968096A21F00A015E
:10348000114A1268116210490968096A0E4A1268E5
:1034900011620C49097841F080010A4A11704FF617
:1034A000FF710A4A118004E006490978491C054A5F
:1034B00011707047002C01407C0000203004002077
:1034C0007E000020800000207C040020820000207C
:1034D0000246002031B1042907D0082908D00C2960
:1034E0000CD108E01368586B09E01368986B06E08C
:1034F0001368D86B03E01368186C00E000BF00BFCE
:103500007047704770477047704700002DE9F047DB
:1035100004462068C569206806682068876840F608
:103520000F0005EA0009B9F1000F0CD105F02000E9
:1035300048B106F0200030B1A06E10B12046A16E57
:103540008847BDE8F087B9F1000F7DD007F0010092
:1035500018B9C14830400028F7D005F0010058B133
:1035600006F4807040B1012021680862D4F884001C
:1035700040F00100C4F8840005F0020058B107F0E3
:10358000010040B1022021680862D4F8840040F0B4
:103590000400C4F8840005F0040058B107F00100ED
:1035A00040B1042021680862D4F8840040F0020091
:1035B000C4F8840005F0080070B106F0200010B9CE
:1035C00007F0010040B1082021680862D4F88400A7
:1035D00040F00800C4F8840005F4006060B106F013
:1035E000806048B14FF4006021680862D4F884001C
:1035F00040F02000C4F88400D4F8840000284BD0A8
:1036000005F0200038B106F0200020B1A06E10B106
:103610002046A16E8847D4F884A02068806800F016
:103620004000402802D00AF0280070B3204600F085
:10363000BEFC2068806800F04000402821D100BF17
:1036400000BF2168083100E027E051E8001F21F0A9
:1036500040002168083141E80002002AF1D100BF92
:10366000606F50B17D48616F8863606FFEF796FAB6
:1036700090B1606F816B88470EE02046FFF744FFF2
:103680000AE02046FFF740FF06E0FFE72046FFF78D
:103690003BFF0020C4F8840053E7206E012872D15C
:1036A00005F0100000286ED006F010000028FAD0B7
:1036B0001020216808622068806800F040004028DF
:1036C00062D1606F006840681FFA80F8B8F1000F9F
:1036D00058D0B4F85800404554DDA4F85A80606FC3
:1036E0000068006800F02000F0BB00BF00BF216848
:1036F00051E8001F21F48070226842E8000100298F
:10370000F5D100BF00BF00BF2168083151E8001F9C
:1037100021F001002168083141E80002002AF3D1BC
:1037200000BF00BF00BF2168083151E8001F21F031
:1037300040002168083141E80002002AF3D100BFAF
:103740002020C4F880000020206600BF00BF216850
:1037500051E8001F21F01000226842E80001002912
:10376000F5D100BF606F00E001E0FEF7EAF902204A
:103770006066B4F85800B4F85A20801A81B2204626
:10378000FFF7C0FEDDE641E034F8580F6188401ACB
:103790001FFA80F86088583CB8B3B8F1000F34D0F5
:1037A00000BF00BF216851E8001F21F4907022681B
:1037B00042E800010029F5D100BF00BF00BF216829
:1037C000083151E8001F21F001002168083141E86B
:1037D0000002002AF3D100BF2020C4F8800000209E
:1037E0002066A06600BF00BF216851E8001F21F0DD
:1037F0001000226842E800010029F5D100BF022034
:10380000606641462046FFF77DFE9AE605F480108B
:1038100050B107F4800038B14FF48010216808627D
:103820002046FFF770FE8CE605F0800040B106F000
:10383000800028B1E06E10B12046E16E884780E636
:1038400005F0400030B106F0400018B1204600F00D
:10385000E1FB76E600BF74E620010004973F000814
:103860002DE9F84F04460E4617469A46D4F88000D4
:1038700020287CD106B117B9012000F07AB80020C9
:103880005834E0622220A0620020A060FEF790FB86
:10389000834627806780583C00BFA068B0F5805FF2
:1038A0000AD1206920B940F2FF10A4F85C0020E0A2
:1038B000FF20A4F85C001CE0A06848B9206918B992
:1038C000FF20A4F85C0014E07F20A4F85C0010E066
:1038D000A068B0F1805F09D1206918B97F20A4F8F1
:1038E0005C0006E03F20A4F85C0002E00020A4F8A1
:1038F0005C0000BFB4F85C90A068B0F5805F04D1B4
:10390000206910B90025B04602E035464FF00008A6
:1039100023E05B46002220212046CDF800A000F0E5
:1039200090FB20B12020C4F880000320A5E745B912
:103930002068808C00EA0900A8F8000008F102085D
:1039400006E02068808C09F0FF01084028706D1C9B
:10395000B4F85A00401EA4F85A00B4F85A000028DF
:10396000D7D12020C4F88000002086E7FFE702209E
:1039700083E718BCBDE8E08F704700BFFEE700009A
:103980008168024A1140491C81607047C0FFFF7F77
:10399000024602F1600000EB8103186800F0F84075
:1039A000704701468868C0F3C000704701468868C8
:1039B000C0F3400070470146886800F0010070477E
:1039C00001468868C0F30070704701468868C0F3FC
:1039D000800070470146C86800F4406008B90120C3
:1039E00070470020FCE700008168024A1140091D71
:1039F00081607047C0FFFF7F70B500F11404C1F310
:103A0000406504EB85031C68C1F304560725B540E7
:103A1000AC43C1F3045502FA05F52C431C6070BD9C
:103A2000826822F0E0720A438260704710B500F1AC
:103A3000600404EB81031C6824F0004414431C6000
:103A400010BD00BFFEE770477047000000B587B0AB
:103A500000BF00BF5148C06C40F001004F49C8642E
:103A60000846C06C00F00100019000BF00BF00BF1D
:103A700000BF00BF0846C06C40F00100C8640846A3
:103A8000C06C00F00100019000BF00BF00BF00BF8C
:103A900000BF0846C06C40F00400C8640846C06C13
:103AA00000F00400019000BF00BF00BF00BF00BFD6
:103AB0000846C06C40F00100C8640846C06C00F0C5
:103AC0000100019000BF00BF00BF00BF00BF08465B
:103AD000C06C40F00100C8640846C06C00F00100F2
:103AE000019000BF00BF00BF881502900120039025
:103AF00004900220059002A94FF09040FEF764F96F
:103B000001200290039004900220059002A94FF03A
:103B10009040FEF759F94FF4805002900120039035
:103B200004900220059002A91D48FEF74DF94FF4BC
:103B30000070029001200390002004900220059064
:103B400002A94FF09040FEF73FF9022002900120B9
:103B50000390002004900220059002A94FF09040AD
:103B6000FEF732F900BF00224FF480510C48FEF7F7
:103B700013FA00BF00BF00224FF400714FF09040D5
:103B8000FEF70AFA00BF00BF002202214FF090406A
:103B9000FEF702FA00BF07B000BD000000100240AF
:103BA00000080048F8B5044600262348806D00F060
:103BB000805018B1FEF7D8FA054616E000BF1E483F
:103BC000806D40F080501C4988650846806D00F08B
:103BD0008050009000BF00BFFEF7C6FA05461648A9
:103BE000806D20F0805014498865B5F5007F07D1BD
:103BF000802C10D9A02C01D902260CE001260AE065
:103C0000802C01D9032606E0802C01D1022602E097
:103C1000702C00D101260948006820F007003043CD
:103C2000064908600846006800F00700B04201D06D
:103C30000120F8BD0020FCE70010024000200240F7
:103C400000B587B000BF00BF5348C06C40F0020011
:103C50005149C8640846C06C00F00200019000BFE2
:103C600000BF00BF00BF00BF0846C06C40F00200AC
:103C7000C8640846C06C00F00200019000BF00BF9D
:103C800000BF00BF00BF0846C06C40F00200C8641F
:103C90000846C06C00F00200019000BF00BF00BFEA
:103CA00000BF00BF0846C06C40F00200C864084670
:103CB000C06C00F00200019000BF00BF00BF00BF59
:103CC00000BF0846C06C40F00400C8640846C06CE1
:103CD00000F00400019000BF00BF00BF4FF400409F
:103CE00002900120039004900220059002A92B4825
:103CF000FEF76AF84FF48040029001200390049090
:103D00000220059002A92548FEF75EF84FF4005006
:103D100002900120039004900220059002A91F4800
:103D2000FEF752F84FF48050029001200390049067
:103D30000220059002A91948FEF746F84FF40050FA
:103D400002900120039004900220059002A91448DB
:103D5000FEF73AF800BF00224FF400410F48FEF78B
:103D60001BF900BF00BF00224FF480410B48FEF753
:103D700013F900BF00BF00224FF400510748FEF7BF
:103D80000BF900BF00BF00224FF480510348FEF73B
:103D900003F900BF07B000BD001002400004004856
:103DA00000080048704710B5FEF708F910BD000084
:103DB0000348006840F47000014908607047000043
:103DC00088ED00E010B50448FFF73FFA6FF00300FC
:103DD00001490968086110BD3004002010B504488D
:103DE000FFF733FA6FF0030001490968086110BD5D
:103DF0007C04002010B50268184B984202D0B0F144
:103E0000804F03D122F070024B681A43134B984243
:103E100008D0B0F1804F05D0114B984202D0114B21
:103E2000984203D122F44072CB681A4322F08003F7
:103E30004C6943EA040202608B68C3620B688362C8
:103E4000064B984205D0064B984202D0054B98424B
:103E500001D10B6903630123436110BD002C0140B4
:103E6000004001400044014030B501F01F0501242D
:103E700004FA05F3046A9C430462046A01F01F0516
:103E800002FA05F52C43046230BD000070B50C4603
:103E90001546026A066A26F0010606628169104E1E
:103EA000B04205D0B0F1804F02D00E4EB04201D1E9
:103EB000012600E000261EB121F00301294301E0A4
:103EC00041F0010121F0F001F02606EA031631432A
:103ED00022F00A0204F00A0632438161026270BDD8
:103EE000002C01400040014070B50C461546026AA6
:103EF000066A26F010060662816921F4407141EAE3
:103F0000052121F470414FF4704606EA033631432F
:103F100022F0A002A02606EA041632438161026262
:103F200070BD70B50C461546026A066A26F48076A6
:103F30000662C16921F00301294321F0F001F02656
:103F400006EA0316314322F420624FF4206606EAA3
:103F500004263243C161026270BD70B50C4615463D
:103F6000026A066A26F480560662C16921F440712D
:103F700041EA052121F470414FF4704606EA033608
:103F8000314322F420424FF4204606EA04363243FD
:103F9000C161026270BD70B50546AC6A0020A4F82C
:103FA0005A00A4F852002046FFF7AEFA70BD00BFD9
:103FB00000BF026852E8002F22F49071036843E8C2
:103FC0000012002AF5D100BF00BF00BF026808320E
:103FD00052E8002F22F001010268083242E8001383
:103FE000002BF3D100BF016E01290CD100BF00BF2F
:103FF000026852E8002F22F01001036843E8001223
:10400000002AF5D100BF2021C0F8801000210166F0
:104010008166704710B5044600BF00BF216851E8B3
:10402000001F21F04000226842E800010029F5D17C
:1040300000BF2020E0670020E0662046FFF79CFCE0
:1040400010BD2DE9F04104460D4617469846069EE0
:104050003CE0701CC8B3FDF7ABFFA0EB0800B0421A
:1040600000D816B90320BDE8F0812068006800F090
:10407000040050B32068C069C0F3C00078B10820C4
:10408000216808622046FFF792FF0820C4F88400E8
:1040900000BF002084F8780000BF0120E3E720681B
:1040A000C069C0F3C02080B14FF40060216808628D
:1040B0002046FFF77CFF2020C4F8840000BF0020CA
:1040C00084F8780000BF0320CDE7FFE72068C069CF
:1040D0002840A84201D1012000E00020B842B8D019
:1040E0000020C0E710B50248FFF710FA10BD00002D
:1040F0008402002008B50E480068C069C0F3401073
:10410000A8B14FF47A73012269460948FFF7A8FB6A
:104110000848007840280ADA9DF800000649054A58
:104120001278885403480078401C0249087008BD82
:104130006803002079000020F003002000BFFEE7A4
:10414000002807DB00F01F0201219140024A4309C9
:1041500042F823107047000080E200E00248006847
:10416000C0F30220704700000CED00E010B50028FD
:1041700004DB0A07130E054A135406E00A07140E5F
:10418000034A00F00F031B1FD45410BD00E400E0ED
:1041900018ED00E002E008C8121F08C1002AFAD199
:1041A00070477047002001E001C1121F002AFBD1B7
:1041B000704700000FB470B5239C3148049004A8E8
:1041C000FCF720FE08B1FCF760FB00200590002101
:1041D00006910791089108210991002104A8017610
:1041E0000121417602210B9100218DF830100D91B3
:1041F0000E910F918DF840104FF4805111910021D4
:104200008DF84810FCF7DEFE08B1FCF73EFB012CF0
:1042100002D11C481D9006E0022C02D11A481D90C4
:1042200001E01A481D9006201E9001201F907F205B
:10423000209004202190002022901DA904A8FCF7C2
:104240007DFB08B1FCF721FB7F2104A8FCF720FBD4
:1042500008B1FCF71AFB04A8FDF77FF808B1FCF7DA
:1042600014FB0A2104A8FDF715F808B1FCF70DFBB3
:1042700004A8FCF7A3FE85B2284670BC5DF814FBC9
:104280000000045002003004040060080800900C94
:104290002DE9F0418AB004460D4616461F46DDF86A
:1042A00040801B481B49086008464760C0F80880EA
:1042B000C460066145610021017641768176C17650
:1042C00001774177FDF7E1FA18B101200AB0BDE8A6
:1042D000F0810020059006900120079000200090BA
:1042E0000190029003900490012008900E20099004
:1042F00069460848FDF74BF908B10220E6E7054892
:10430000FDF7F0FB08B10320E0E70020DEE7000046
:10431000006400400C03002070B505460C460021E7
:104320000848FDF7B9F908B9012070BD2346064ACF
:1043300000210448FDF7C4F908B10120F5E7002089
:10434000F3E700000C0300204C030020F8B50446FE
:104350000D461646002701200090124844600420B4
:10436000104988600020C860084606616B462A46EE
:104370000D48FDF767F808B10120F8BD0AE0781C88
:1043800087B2B7F5805F05DB07480099FDF72FF886
:104390000120F2E70448FDF75DFA0328EFD1002081
:1043A000EBE70000340300200C0300200149086003
:1043B000704700006C00002010B504464FF47A717D
:1043C00004FB01F000F002F810BD000070B50346D8
:1043D00000224FF0E02675690D4E366803FB06F4A7
:1043E0004FF0E026B16910E04FF0E026B069884256
:1043F0000BD0884202D20E1A324402E02E1A0E442A
:1044000032440146A24200D300E0EDE700BF70BD98
:104410006C00002000B587B000BF00BF1B48C06C17
:1044200040F004001949C8640846C06C00F004005C
:10443000019000BF00BF00BF00BF00BF0846C06CB6
:1044400040F00400C8640846C06C00F0040001900D
:1044500000BF00BF00BF8020029000200390012019
:1044600004900220059002A90948FDF7ADFC4FF425
:10447000807002900020039001200490022005909B
:1044800002A90348FDF7A0FC07B000BD00100240E0
:104490000008004870B50446002514B101201A49EF
:1044A000087019480078F0B180211848FDF76CFDBC
:1044B00028B14FF480711548FDF766FD98B90A20C0
:1044C000FFF77AFF00201049087080210F48FDF7A0
:1044D0005BFD00B901254FF480710C48FDF754FDD8
:1044E00078B902250DE080210848FDF74DFD01282F
:1044F00007D101020548FDF747FD012801D1024916
:104500000870284670BD00007A00002000080048AE
:1045100000B587B000BF00BF2748C06C40F008005E
:104520002549C8640846C06C00F00800019000BF2F
:1045300000BF00BF00BF00BF0846C06C40F00200D3
:10454000C8640846C06C00F00200019000BF00BFC4
:1045500000BF00BF00BF0846C06C40F00200C86446
:104560000846C06C00F00200019000BF00BF00BF11
:10457000042002900020039004900220059002A9DC
:104580000E48FDF721FC08200290002003900490C3
:104590000220059002A90A48FDF716FC202002908F
:1045A00000200390012004900220059002A90448F5
:1045B000FDF70AFC07B000BD00100240000C0048E7
:1045C000000400482DED0A8BC8B0FDF703FD022062
:1045D00003460722012100900A2001F013FB282046
:1045E000FFF7E4FEFFF732FAFFF714FF00264FF45F
:1045F00040384FF40015642700203B4642462946C8
:1046000000903046FFF744FEFFF71AFB01F0C2F9B5
:10461000FCF7D6F8FFF77CFF27214FF6FF7000F07C
:104620005BF927214FF6FF7000F094F9542291496D
:104630001DA8FBF7C9FD8F48406D32908D48806DF5
:1046400033908C49C86D096ECDE9340101201822E0
:1046500042A91B9015A8FBF7B7FD542221A9684673
:10466000FBF7B2FD1DA80FC8FFF7A4FD8249088023
:1046700008460088FBF7B0FE41EC1C0B9FED7F0B5A
:1046800053EC102BFBF7C4FD41EC1B0B9FED7D0B96
:1046900053EC102BFBF7BCFD41EC1A0B9FED7B0B91
:1046A00053EC102BFBF7B4FD41EC190B9FED790B8C
:1046B00053EC102BFBF721FE41EC180BFBF799FE96
:1046C00076490870542276491DA8FBF77DFD744891
:1046D000406D32907248806D33907149C86D096E9B
:1046E000CDE93401022018223CA91B9015A8FBF744
:1046F0006BFD542221A96846FBF766FD1DA80FC873
:10470000FFF758FD6749088008460088FBF764FEFC
:1047100041EC1C0B9FED590B53EC102BFBF778FD74
:1047200041EC1B0B9FED570B53EC102BFBF770FD6F
:1047300041EC1A0B9FED550B53EC102BFBF768FD6A
:1047400041EC190B9FED530B53EC102BFBF7D5FDF0
:1047500041EC180BFBF74DFE5349087054225349A6
:104760001DA8FBF731FD5148406D32904F48806DD8
:1047700033904E49C86D096ECDE9340103201822EB
:1047800036A91B9015A8FBF71FFD542221A96846E6
:10479000FBF71AFD1DA80FC8FFF70CFD4449088060
:1047A00008460088FBF718FE41EC1C0B9FED330B0D
:1047B00053EC102BFBF72CFD41EC1B0B9FED310B49
:1047C00053EC102BFBF724FD41EC1A0B9FED2F0B44
:1047D00053EC102BFBF71CFD41EC190B9FED350B37
:1047E00053EC102BFBF789FD41EC180BFBF701FE96
:1047F000324908701C20FDF72BFC39E00020FFF740
:1048000049FE0446012C01D0022C02D101202C4982
:10481000087004212B48FDF7B7FB012807D12021A0
:104820002948FDF7B1FB10B901202849087004217F
:104830002548FDF7A9FB2649087000F0C7F80320BA
:104840002449087015480078887017480078C870A7
:1048500020211D48FDF798FB1E49087116210F20E5
:1048600000F072FA1B4A07CA33AB07C300F0ACFD75
:10487000C4E7000084000020000000206666666631
:1048800066660A40000000000000244000000000AE
:1048900000001840000000000000B04006000020AA
:1048A000E800002002000020070000204C0100204A
:1048B000040000209A99999999998940080000204C
:1048C00009000020000C0048000400480B000020F4
:1048D0000C000020B00100207FB504460D461B48A7
:1048E000FEF773FA002000900190029003901848A0
:1048F000164908600846456000218160C4600120B7
:10490000124908770846FEF7A0FA0220009001201D
:104910000190002002900390002269460B48FEF7A8
:10492000E5F900200A491031086008480068C068AD
:1049300040F0010005490968C8601B20FFF700FC32
:1049400000210248FEF740FB7FBD0000300400203C
:10495000002C01407FB504460D461B48FEF735FA92
:10496000002000900190029003904FF08040164983
:1049700008600846456000218160C460012012493A
:1049800008770846FEF761FA0220009001200190A6
:10499000002002900390002269460B48FEF7A6F91A
:1049A00000204FF08041086107480068C06840F06F
:1049B000010005490968C8601C20FFF7C1FB002100
:1049C0000148FEF701FB7FBD7C04002010B5C34801
:1049D000007800F0800000287ED0C048007800F009
:1049E0003F00BF49086008460068C0EB004008600F
:1049F00008460068BB4909880844B9490860084668
:104A0000006841F2941188421ED3B548006841F213
:104A10007C51884218D80120B34908700020B3495E
:104A20000870B3490870B34908701B20FDF710FBEC
:104A30000021B148FEF78EFB1C20FDF709FB002189
:104A4000AE48FEF787FB99E0A548006841F664117F
:104A500088422ED3A248006841F64C51884228D89B
:104A60000020A14908700120A04908700020A04939
:104A70000870A0490870A2480078401CA04908703E
:104A8000A0480078401C9F4908709F480078401C4F
:104A90009D4908701B20FDF7DBFA00219648FEF7C0
:104AA00059FB1C20FDF7D4FA00219448FEF752FB75
:104AB00064E08B48006842F23411884230D3884861
:104AC000006842F21C5188422AD8002086490870AA
:104AD00086490870012000E053E0854908700020F5
:104AE0008449087089480078401C884908708848C3
:104AF0000078401C8649087086480078401C85492B
:104B000008701B20FDF7A4FA00217B48FEF722FB6A
:104B10001C20FDF79DFA00217848FEF71BFB2DE0D5
:104B20006F48006848F2C46188421ED36C48006830
:104B300048F6AC21884218D800206B4908706B49B0
:104B400008706B49087001206A4908701B20FDF746
:104B50007FFA00216848FEF7FDFA1C20FDF778FA7D
:104B600000216648FEF7F6FA08E000205E4908706A
:104B70005E4908705E4908705E4908700020574918
:104B800008706548007800F0800000287ED06248F8
:104B9000007800F03F006149086008460068C0EBFB
:104BA00000400860084600685D49098808445B4980
:104BB00008600846006841F2941188421CD35748A7
:104BC000006841F27C51884216D80120554908708E
:104BD000002055490870554908701C20FDF738FA27
:104BE00000214648FEF7B6FA1B20FDF731FA0021F6
:104BF0004148FEF7AFFA6DE04848006841F664119D
:104C000088422CD34548006841F64C51884226D84A
:104C1000002044490870012043490870002043499E
:104C2000087043480078401C4149087041480078AA
:104C3000401C4049087040480078401C3E490870BC
:104C40001C20FDF705FA00212C48FEF783FA1B20F3
:104C5000FDF7FEF900212848FEF77CFA3AE02F48DC
:104C6000006842F2341188422DD32C48006842F289
:104C70001C51884227D800202A4908702A49087008
:104C800001202A4908702D48007800E025E0401CEA
:104C90002A4908702A480078401C29490870294888
:104CA0000078401C274908701C20FDF7D1F900212D
:104CB0001248FEF74FFA1B20FDF7CAF900210E48F3
:104CC000FEF748FA06E000201649087016490870F9
:104CD0001649087000201049087010BD7C000020A3
:104CE0004C0000207E0000203F00002041000020FA
:104CF0004300002045000020300400207C040020F8
:104D0000580000205A0000205C0000205E000020B7
:104D10006000002062000020800000205000002081
:104D200082000020400000204200002044000020BB
:104D3000590000205B0000205D0000205F00002083
:104D4000610000206300002070B505460C46A048B5
:104D50000078012807D09F480078012803D09E489A
:104D60000078012864D104219C48FDF70DF99C4985
:104D700008700846007800284FD19A48007801282A
:104D800016D10220FFF718FB00BF012251024FF09D
:104D90009040FDF701F900BF2846FFF70DFB00BF6B
:104DA00000224FF400714FF09040FDF7F5F816E047
:104DB0000220FFF701FB00BF012251024FF090409B
:104DC000FDF7EAF800BF2046FFF7F6FA00BF002221
:104DD0004FF400714FF09040FDF7DEF800BF642003
:104DE000FFF7F4FA00BF012211037F48FDF7D4F862
:104DF00000BF04217948FDF7C7F879490870754864
:104E00000078012809D108460078012805D17749A2
:104E10000870774908707749087000206D4908705C
:104E20006B4908706C4908706E49087072490870C7
:104E300072480078012807D06F480078012803D015
:104E40006F480078012862D104216448FDF79CF87E
:104E5000634908700846007800284DD16148007801
:104E6000012815D10220FFF7A7FA00BF0122022175
:104E70004FF09040FDF790F800BF2846FFF79CFAEE
:104E800000BF002202214FF09040FDF785F815E0A9
:104E90000220FFF791FA00BF012202214FF090405B
:104EA000FDF77AF800BF2046FFF786FA00BF002220
:104EB00002214FF09040FDF76FF800BF6420FFF72C
:104EC00085FA00BF012211034748FDF765F800BFCE
:104ED00004214248FDF758F84149087046480078D7
:104EE000012809D108460078012805D145490870F4
:104EF000454908704549087000203F4908703F49FE
:104F000008703F49087037490870324908703448C2
:104F10000078012843D18007006920F002004FF09B
:104F2000804108610846006920F0040008611C20E7
:104F3000FDF78EF800213648FEF70CF91B20FDF72F
:104F4000A9F800213348FEF73FF8334800780128DC
:104F500025D16420FFF73AFA00BF00224FF48051B8
:104F60002148FDF719F800BF00202B4908702B4994
:104F700008702B4908702B4908702B4908702B4981
:104F800008702B4908702B4908702B4908702B4971
:104F900008702B4908702B4908702B4908700421B0
:104FA0000E48FCF7F1FF0E4908700846007868B912
:104FB0001B20FDF76FF800211648FEF705F81C20AE
:104FC000FDF768F800211248FDF7FEFF70BD0000F4
:104FD0003F00002041000020430000200004004862
:104FE0000C0000200B000020000800486400002096
:104FF00066000020680000204200002040000020E1
:1050000044000020650000206700002069000020A7
:105010007C040020300400204500002058000020BF
:10502000590000205A0000205B0000205C00002096
:105030005D0000205E0000205F0000206000002076
:10504000610000206200002063000020FEB50546DC
:10505000002002900026009001900821D648FCF71D
:1050600093FF8DF8000004214FF09040FCF78CFF77
:105070008DF8010008214FF09040FCF785FF8DF876
:10508000020010214FF09040FCF77EFF8DF80300E6
:1050900020214FF09040FCF777FF8DF8040040216D
:1050A0004FF09040FCF770FF8DF8050080214FF025
:1050B0009040FCF769FF8DF806000421BF48FCF71B
:1050C00063FF8DF80700BE48007801282BD19DF8BA
:1050D0000000BC490978884225D02888FFF76CF980
:1050E000002405E09DF8000002A90855601CC4B228
:1050F000032CF7DB9DF808009DF8091088420BD1BE
:105100009DF808009DF80A10884205D101269DF8F7
:105110000000AC49087006E09DF80A00A949087033
:105120002888FFF749F9A6484078012827D19DF83B
:105130000100A4494978884221D06888FFF73CF9EA
:10514000002405E09DF8010002A90855601CC4B2C6
:10515000032CF7DB9DF808009DF8091088420BD15D
:105160009DF808009DF80A10884205D101269DF897
:1051700001009449487002E06888FFF71DF99048E3
:105180008078012827D19DF802008E4989788842CD
:1051900021D0A888FFF710F9002405E09DF802004F
:1051A00002A90855601CC4B2032CF7DB9DF8080067
:1051B0009DF8091088420BD19DF808009DF80A104F
:1051C000884205D101269DF802007E49887002E0E0
:1051D000A888FFF7F1F87A48C078012827D19DF810
:1051E00003007849C978884221D0E888FFF7E4F8BD
:1051F000002405E09DF8030002A90855601CC4B214
:10520000032CF7DB9DF808009DF8091088420BD1AC
:105210009DF808009DF80A10884205D101269DF8E6
:1052200003006849C87002E0E888FFF7C5F86448E1
:105230000079012827D19DF8040062490979884244
:1052400021D02889FFF7B8F8002405E09DF8040074
:1052500002A90855601CC4B2032CF7DB9DF80800B6
:105260009DF8091088420BD19DF808009DF80A109E
:10527000884205D101269DF804005249087102E0D8
:105280002889FFF799F84E484079012827D19DF8E1
:1052900005004C494979884221D06889FFF78CF88C
:1052A000002405E09DF8050002A90855601CC4B261
:1052B000032CF7DB9DF808009DF8091088420BD1FC
:1052C0009DF808009DF80A10884205D101269DF836
:1052D00005003C49487102E06889FFF76DF83848DD
:1052E0008079012827D19DF80600364989798842BE
:1052F00021D0A889FFF760F8002405E09DF806009A
:1053000002A90855601CC4B2032CF7DB9DF8080005
:105310009DF8091088420BD19DF808009DF80A10ED
:10532000884205D101269DF806002649487002E012
:10533000A889FFF741F82248C079012827D19DF8B4
:1053400007002049C979884221D0E889FFF734F85D
:10535000002405E09DF8070002A90855601CC4B2AE
:10536000032CF7DB9DF808009DF8091088420BD14B
:105370009DF808009DF80A10884205D101269DF885
:1053800007001049C87102E0E889FFF715F8062008
:10539000FCF780FE0720FCF77DFE0820FCF77AFE74
:1053A0000920FCF777FE0A20FCF774FE1720FCF7B3
:1053B00071FE3046FEBD00000008004800040048B1
:1053C000240000202C0000202DE9F74F84B002A813
:1053D00001904FF0000A4FF4FA70FEF7F7FF9DF8C6
:1053E000140001281ED100BF0022C103F848FCF7B9
:1053F000D3FD00BF00BF00224FF48041F448FCF70A
:10540000CBFD00BF00BF00224FF40051F048FCF775
:10541000C3FD00BF00BF00224FF48051EC48FCF7F1
:10542000BBFD00BFEB480078012807D19DF81600AE
:1054300020F00400001D8DF8160005E09DF8160010
:1054400020F004008DF816004FF40061E048FCF7EE
:105450009BFD012807D19DF8160020F00100401C9B
:105460008DF8160005E09DF8160020F001008DF87B
:105470001600D9480078012802D18DF8150002E005
:1054800000208DF815009DF81000D44908709DF893
:10549000120048709DF8130088709DF81400C870C1
:1054A0009DF81500087100BF00224FF40061CC4840
:1054B000FCF772FD00BFCB4948680199FEF72CFF4D
:1054C00000282FD1C74840684FEA1068C548808837
:1054D000C0F30725C34804794068C0F30640C249B9
:1054E0000870B8F1010F1ED1C0480078012803D020
:1054F000BF480078012816D1BE4805700078BE4923
:1055000008700846007801280CDB084600783D2822
:1055100008DCB8490978B94A42EA01400022AF499B
:10552000FEF714FF9FE1B8F1030F74D1AE48007885
:10553000B14909788842F8D1012D1CD16CB900BF5E
:105540000022E903A248FCF727FD00BFAC48007821
:1055500020F00100AA4908706BE000BF0122D103CE
:105560009B48FCF719FD00BFA548007840F00100FA
:10557000A34908705DE0022D1CD16CB900BF002268
:1055800069039348FCF708FD00BF9D48007820F0B0
:1055900002009B4908704CE000BF012291038C4837
:1055A000FCF7FAFC00BF9648007840F002009449EE
:1055B00008703EE0032D1DD174B900BF00224FF4E6
:1055C00000518348FCF7E8FC00BF8D48007820F0CC
:1055D00004008B4908702CE000BF012251037C4875
:1055E000FCF7DAFC00BF8648007840F004008449EC
:1055F00008701EE0042D1CD174B900BF0022A9025E
:105600007348FCF7C9FC00BF7D48007820F0080013
:105610007B4908700DE027E000BF012211036C48B0
:10562000FCF7BAFC00BF7648007840F008007449E7
:105630000870734800786949C8716A49002248684F
:105640006649FEF783FE674948680199FEF764FEE4
:10565000002808D1634890F80490B9F1000FF8D100
:105660000F205E49C871FEE0B8F1080F54D15E48C2
:1056700000786149097888424ED12611012E06D161
:1056800004F00F0045EA00205E4908803DE0022E4C
:1056900006D104F00F0045EA00205A49488034E062
:1056A000032E06D104F00F0045EA002055498880FA
:1056B0002BE0042E06D104F00F0045EA00205149EA
:1056C000C88022E0052E06D104F00F0045EA002034
:1056D0004C49088119E0062E06D104F00F0045EA76
:1056E00000204849488110E0072E06D104F00F0041
:1056F00045EA00204349888107E0082E05D104F0DF
:105700000F0045EA00203F49C88136490022486819
:105710003249FEF71BFEA6E0B8F1170F46D132481A
:10572000007835490978884240D1012D17D100BF52
:10573000012251032A48FCF72FFC00BF9DF81600F8
:1057400020F00200801C8DF816002A4909782E4AA4
:1057500042EA014000222149FEF7F8FD17E000BFB0
:1057600000224FF400511E48FCF716FC00BF9DF8C4
:10577000160020F002008DF816001E4909784FF03F
:10578000BC5242EA014000221449FEF7DFFD9DF8B9
:105790001600C0F3400161F35F009DF81610C1F3DD
:1057A000800140EA81000D4948715CE0B8F1180FB2
:1057B00059D10D48007810490978884253D114B95D
:1057C0000020009049E0012C20D14FF4966744E07E
:1057D00000040048090000200B00002037000020D2
:1057E000000800484C030020340000206200002024
:1057F000630000200A000020350000200003801113
:10580000360000201400002000018017022C02D175
:105810004FF4166721E0032C02D14FF496571CE099
:10582000042C02D14FF4165717E0052C02D14FF487
:10583000964712E0062C02D14FF416470DE0072CD4
:1058400002D14FF4614708E0082C02D14FF4E13750
:1058500003E0092C01D14FF4E127414900224868B7
:105860004049FEF773FD4048FFF7F0FB8246BAF16E
:10587000010F51D108213D48FCF786FB83460421E6
:105880004FF09040FCF780FB4BEA400B08214FF0B3
:105890009040FCF779FB4BEA800B10214FF09040D1
:1058A000FCF772FB4BEAC00B20214FF09040FCF755
:1058B0006BFB4BEA001B40214FF09040FCF764FB70
:1058C0004BEA401B80214FF09040FCF75DFB4BEA18
:1058D000801B04212648FCF757FB4BEAC010C0B2DE
:1058E0008DF817009DF817001E4988712149097825
:1058F0004FF0207242EA014008221A49FEF726FDC5
:105900004FF0000A00201C49087048708870C87069
:10591000087148718871C87118480078012803D04F
:1059200017480078012816D116480078012803D0BE
:105930001548007801280ED10E4909784FF02072E1
:1059400042EA014008220749FEF700FD00200B490A
:1059500008700B490870002007B000F017B800006D
:105960004C030020370000201400002000080048ED
:10597000000400480A0000202400002068000020E5
:10598000690000205C0000205D00002030BCBDE804
:10599000C08F000000B587B000BF00BF9648C06C44
:1059A00040F004009449C8640846C06C00F004004C
:1059B000019000BF00BF00BF00BF00BF0846C06C21
:1059C00040F00100C8640846C06C00F0010001907E
:1059D00000BF00BF00BF00BF00BF0846C06C40F062
:1059E0000100C8640846C06C00F00100019000BFCF
:1059F00000BF00BF00BF00BF0846C06C40F0010000
:105A0000C8640846C06C00F00100019000BF00BFF0
:105A100000BF00BF00BF0846C06C40F00100C86472
:105A20000846C06C00F00100019000BF00BF00BF3D
:105A300000BF00BF0846C06C40F00100C8640846C3
:105A4000C06C00F00100019000BF00BF00BF00BFAC
:105A500000BF0846C06C40F00100C8640846C06C36
:105A600000F00100019000BF00BF00BF00BF00BFF9
:105A70000846C06C40F00200C8640846C06C00F0E4
:105A80000200019000BF00BF00BF082002904FF449
:105A9000441003900020049002A95848FCF794F9A0
:105AA000042002904FF4441003900020049002A9B7
:105AB0004FF09040FCF788F9082002904FF4441012
:105AC00003900020049002A94FF09040FCF77CF96D
:105AD000102002904FF4441003900020049002A97B
