:020000040800F2
:1000000040090020A5010008073B00083B3A000812
:10001000033B000809080008B14200080000000086
:100020000000000000000000000000000D3E00087D
:100030000D08000800000000093B00080F3E000802
:10004000BF010008BF010008BF010008BF01000890
:10005000BF010008BF0100080F08000819080008C8
:10006000230800082D08000837080008BF01000811
:10007000BF010008BF010008BF010008BF01000860
:10008000BF010008BF010008BF010008BF01000850
:10009000BF010008BF010008BF01000841080008B7
:1000A000BF0100082D3E0008BF010008BF01000885
:1000B000293F00080000000000000000BF01000808
:1000C000BF010008BF010008BF010008BF01000810
:1000D000BF01000859420008BF010008694200083A
:1000E000BF010008BF010008000000000000000080
:1000F0000000000000000000000000000000000000
:1001000000000000BF01000800000000BF0100085F
:100110000000000000000000BF010008BF0100084F
:10012000BF010008BF010008BF010008BF010008AF
:10013000BF010008000000000000000000000000F7
:10014000BF010008BF010008BF0100080000000057
:10015000BF010008BF010008BF010008BF0100087F
:10016000BF010008BF010008BF0100080000000037
:10017000BF010008BF0100080000000000000000EF
:10018000BF010008BF010008BF010008DFF810D060
:1001900000F0C4F900480047F5460008AFF30080BE
:1001A000400900200648804706480047FEE7FEE772
:1001B000FEE7FEE7FEE7FEE7FEE7FEE7FEE7FEE717
:1001C000193E00088D01000840EA01039B0703D097
:1001D00009E008C9121F08C0042AFAD203E011F886
:1001E000013B00F8013B521EF9D27047D2B201E048
:1001F00000F8012B491EFBD270470022F6E710B52C
:1002000013460A4604461946FFF7F0FF204610BD84
:100210002DE9FE4F81EA030404F0004421F000417F
:1002200000944FF0000B23F0004350EA01045ED02D
:1002300052EA03045BD0C3F30A54C1F30A552C44B9
:10024000A4F2F3340194A0FB0254C1F3130141F46E
:100250008011C3F3130343F4801301FB024400FB3A
:10026000034E840A970A44EA815447EA8357A4FB61
:10027000076802958D0A05FB07854FEA932C04FB5E
:100280000C542705029D4FEA065847EA1637B5EB8E
:1002900008056EEB070C870E920E47EA811742EABB
:1002A0008312A7FB0201B6EB0B0164EB00042B0DDC
:1002B00043EA0C335E1844EB1C50DA465146E7FB28
:1002C0000201C5F313044FEA0B3343EA14534FEA18
:1002D0000432019C43EA0603A4F10C040294009C3E
:1002E000CDE900B400F0CCF803B000F003B8002072
:1002F0000146F9E730BCBDE8C08F2DE9F04D81EA39
:10030000030404F0004B21F0004514464FF0000AAE
:1003100023F0004150EA050220D054EA01021DD02A
:10032000C5F30A570246C5F31303C1F31300C1F323
:100330000A5640F4801543F48013A7EB0608101BFF
:10034000D64608F2FD3873EB050002D308F1010828
:1003500001E092185B41B8F1000F03DA002001467A
:10036000BDE8F08D00204FF48011064684460EE073
:10037000171B73EB050705D3121B63EB050306433D
:100380004CEA010C49084FEA300092185B4150EAF0
:100390000107EDD152EA030012D082EA040083EA99
:1003A0000501084305D0101BAB4106D201220023F2
:1003B00006E000224FF0004302E06FF0010253100C
:1003C0001AEB06004CEB085110EB0A0041EB0B0155
:1003D000BDE8F04D00F045B80EB540F23341029152
:1003E0000021CDE900110A460B4600F049F803B0A0
:1003F00000BDC1F30A5210B5C1F3130140F2FF333F
:1004000041F480119A4201DA002010BD40F23343DA
:100410009A42A2F2334203DC524200F012F810BDBD
:10042000904010BD202A04DB203A00FA02F100209F
:1004300070479140C2F1200320FA03F31943904022
:100440007047202A04DB203A21FA02F0002170478D
:1004500021FA02F3D040C2F120029140084319462C
:10046000704710B5141E73F1000408DA401C41F106
:10047000000192185B411A4301D120F0010010BD28
:100480002DE9F04D92469B4611B1B1FA81F202E09E
:10049000B0FA80F220329046FFF7C4FF04460F46C0
:1004A00040EA0A0041EA0B0153465A46084313D07A
:1004B000114653EA010019D0C8F140025046FFF737
:1004C000C0FF05460E46504659464246FFF7AAFF72
:1004D000084305D0012004E020463946BDE8F08DF0
:1004E0000020054346EAE0762C4337430A9863052B
:1004F000E40AA0EB08000022FD0A44EA47540A304F
:1005000002D500200146E9E7010510196941DDE93E
:10051000084500196941BDE8F04DA2E7064C074DBA
:1005200006E0E06840F0010394E8070098471034C3
:10053000AC42F6D3FFF72EFECC5A0008EC5A000866
:100540002DE9F05F044688464FF0000947462068D1
:1005500003F09BFA8246206803F083FA8346BAF1DF
:10056000000F02D1BBF1000F72D02068C06800F00C
:10057000007000B3607E01281DD1207E01281AD1B1
:1005800001270FE0334881450AD3606D40F0100029
:100590006065A06D40F00100A065012000F05EB82C
:1005A00009F1010920680068C0F380100028E9D033
:1005B000402021680860022F10D0206803F065FAFF
:1005C00060B1206803F052FA40B920688168224A7D
:1005D000114041F01001816000BF00BF012F10D019
:1005E000206803F03EFA60B1206803F03FFA40B99A
:1005F00020688168184A114041F02001816000BFE5
:1006000000BF022F03D0032F03D10C2503E00825E0
:1006100001E0042500BF00BF01F09EFC064612E089
:1006200001F09AFC801B05280DD9206880682840BD
:1006300048B1606D40F010006065A06D40F00100B1
:10064000A0650120AAE72068806828400028E7D13B
:100650000020A3E7000040A3C0FFFF7F30BCBDE83F
:10066000C09F000070B50446206803F0FFF90646FD
:10067000206803F000FA98B396BB2068806800F009
:100680000D0001280AD1206881681A4A1140891C8E
:10069000816000BF03202168086009E0606D40F0C0
:1006A00010006065A06D40F00100A065012070BDE4
:1006B00001F052FC054614E001F04EFC401B0228FC
:1006C0000FD92068806800F0010050B1606D40F0E3
:1006D00010006065A06D40F00100A0650120E6E714
:1006E00005E02068806800F001000028E4D10020C7
:1006F000DDE70000C0FFFF7F38B504460020009012
:10070000206803F0B8F900284FD120688068284994
:10071000084048B1606D40F010006065A06D40F089
:100720000100A065012038BD206803F089F900BFF1
:100730002048806800F0E07000F4000080B11E489E
:1007400000681E49B0FBF1F0401C00EB4000800047
:10075000009002E00098401E009000980028F9D117
:1007600001F0FAFB05461AE0206803F084F910B99D
:10077000206803F065F901F0EFFB401B02280ED959
:100780002068006800F0010048B9606D40F010007A
:100790006065A06D40F00100A0650120C3E72068FE
:1007A000006800F001000028DED00020BBE7000058
:1007B0003F000080000304500C000020400D0300A7
:1007C00000B587B000BF00BF0D48C06C40F002000C
:1007D0000B49C8640846C06C00F00200019000BFDD
:1007E00000BF00BF802002900120039004900220EF
:1007F000059002A9034801F0BBFA07B000BD000054
:10080000001002400004004800BFFEE7704710B52A
:10081000012001F09FFA10BD10B5022001F09AFAF4
:1008200010BD10B5042001F095FA10BD10B50820D8
:1008300001F090FA10BD10B5102001F08BFA10BD38
:1008400010B5202001F086FA402001F083FA8020C4
:1008500001F080FA10BD00BFFEE70000F8B50446C5
:100860000D460020009000BF94F85000012801D1EF
:100870000220F8BD012084F8500000BF2046FFF799
:10088000F1FE06468EBB606D20F4885040F00200F9
:100890006065206881681B4A114005F0804242F083
:1008A00000421143816000BF13E00098401C00909B
:1008B0000098B0F5912F0CD3606D20F0020040F04D
:1008C0001000606500BF002084F8500000BF0120C8
:1008D000CFE720688168C90F0029E6D1606D20F05C
:1008E000020040F00100606504E0FFE7606D40F049
:1008F0001000606500BF002084F8500000BF304643
:10090000B7E70000C0FFFF3F2DE9FC5F05460C463E
:10091000002001900090FE49E068884200D000E08D
:1009200000BF00BF95F85000012802D1022000F05E
:100930004BBA012085F8500000BF286803F0A5F8E5
:10094000002879D167686068052815D86068022892
:1009500006D0032806D0042806D0052809D105E0D2
:100960000C2708E0122706E0182704E04FF48077F0
:1009700001E0062700BF00BF2868216800F13003AE
:10098000C7F3012C03EB8C02136807F01F0B4FF029
:100990001F0C0CFA0BFC23EA0C0307F01F0CC1F32D
:1009A000846B0BFA0CFB43EA0B03136000BF28684F
:1009B00003F06BF88246286803F053F88146BAF1D9
:1009C000000F2AD1B9F1000FFBD1A2682168286875
:1009D00003F072F860692968C968C1F3C101490070
:1009E00000FA01F82069042818D0286822682169D3
:1009F00000F1600C0CEB8103D3F800C0DFF814B3F6
:100A00000CEA0B0C02F0F84B4BF0004B4BEA080BD6
:100A10004CEA0B0CC3F800C000BFA8E00021286816
:100A200003F016F8C0F3120038B90021286803F06B
:100A30000FF8C0F3846008E0AEE10021286803F0FD
:100A400007F890FAA0F0B0FA80F02168C1F3120123
:100A500019B92168C1F3846104E0216891FAA1F118
:100A6000B1FA81F1884204D100221146286803F0CE
:100A70003DF80121286802F0EBFFC0F3120030B905
:100A80000121286802F0E4FFC0F3846007E001213F
:100A9000286802F0DDFF90FAA0F0B0FA80F021683B
:100AA000C1F3120119B92168C1F3846104E021681E
:100AB00091FAA1F1B1FA81F1884204D10022012119
:100AC000286803F013F80221286802F0C1FFC0F380
:100AD000120030B90221286802F0BAFFC0F3846026
:100AE00007E00221286802F0B3FF90FAA0F0B0FA04
:100AF00080F02168C1F3120119B92168C1F3846142
:100B000004E0216891FAA1F1B1FA81F1884204D19F
:100B100000220221286802F0E9FF0321286802F080
:100B200097FFC0F3120030B90321286802F090FF4C
:100B3000C0F3846007E00321286802F089FF90FA7F
:100B4000A0F0B0FA80F02168C1F3120119B9216850
:100B5000C1F3846104E0216891FAA1F1B1FA81F155
:100B6000884204D100220321286802F0BFFF2868D0
:100B700002F081FF002872D12868E2682168D0F86D
:100B8000B030C1F3120C23EA0C0302F0180BDFF8AB
:100B900088C12CFA0BFC0CEA010C43EA0C03C0F8E8
:100BA000B03000BF5A49E068884258D12368C3F387
:100BB00012031BB92368C3F3846304E0236893FA28
:100BC000A3F3B3FA83F35B1C03F01F03092B3ED896
:100BD0002368C3F312031BB92368C3F3846304E0DF
:100BE000236893FAA3F3B3FA83F35B1C03F01F03A8
:100BF0004FF0010C0CFA03FC2368C3F312031BB97A
:100C00002368C3F3846304E0236893FAA3F3B3FA7D
:100C100083F35B1C03F01F034CEA836C2368C3F36C
:100C200012031BB92368C3F3846304E0236893FAB7
:100C3000A3F3B3FA83F35B1C03F01F0303EB43033B
:100C40004FF0000B4BEA03534CEA03033FE02368E9
:100C5000C3F3120323B92368C3F3846305E03BE0C5
:100C6000236893FAA3F3B3FA83F35B1C03F01F0327
:100C70004FF0010C0CFA03FC2368C3F312031BB9F9
:100C80002368C3F3846304E0236893FAA3F3B3FAFD
:100C900083F35B1C03F01F034CEA836C2368C3F3EC
:100CA00012031BB92368C3F3846304E0236893FA37
:100CB000A3F3B3FA83F35B1C03F01F030A3B03EBBC
:100CC00043034FF0007B4BEA03534CEA03031946FE
:100CD000A268286802F0F0FE10492068084038B386
:100CE00000BF0F48806800F0E07600BF0D49206823
:100CF00088422FD106F4000060BB0B492868884267
:100D000049D146F40001064802F0EAFE074810E027
:100D100000007F4000F0FF03FFFF07000000088095
:100D200000030450000052C7000004500C000020D3
:100D300020E000681F49B0FBF1F0401C00EB4000D0
:100D40008000009002E00098401E0090009800286B
:100D5000F9D120E01849206888420CD106F0807053
:100D600048B916492868884215D146F08071144860
:100D700002F0B6FE0FE01349206888420BD106F45A
:100D8000800040B90D492868884204D146F48001AA
:100D90000B4802F0A5FE05E0686D40F02000686594
:100DA0000120019000BF002085F8500000BF01988D
:100DB000BDE50000400D0300000084CB000004509E
:100DC00000030450010000803CBCBDE8C09F00004F
:100DD00070B504460CB9012070BD606D40F0020092
:100DE000606503212046FFF7ABFB05462068C0681D
:100DF00040F400102168C86035B92046FFF732FC86
:100E000005460DB901206065206840686FF30A004F
:100E10002168486040F2FF7021680860206880689F
:100E200020F0A040216888602068806840F0005071
:100E3000216888602068C0684D4908402168C86002
:100E40002068C06840F000402168C86020680069E0
:100E50006FF30A00216808612068406900F0404093
:100E6000216848612068806900F0784021688861C5
:100E70002068006A00F0F020216808622068406A5B
:100E800000F0FF20216848622068806A00F0FF209F
:100E9000216888622068006B364908402168086331
:100EA0002068406B33491039084021684863206846
:100EB000806B304910390840216888632068C06B16
:100EC00040F2DF7188432168C8632068006E2A49B8
:100ED0000840216808662068406E2749084021685C
:100EE00048662068806E244908402168886620682A
:100EF000C06E214908402168C8662068D0F8A0006B
:100F00006FF312002168C1F8A0002068D0F8A40097
:100F10006FF312002168C1F8A4002068D0F8B00077
:100F20006FF312002168C1F8B0002068D0F8B40057
:100F300020F07F102168C1F8B400104802F09BFD3A
:100F400048B90F4800680F4908400C49C1F8080328
:100F5000204600F017F90020A065E0650021216619
:100F6000606500BF84F8500000BF284634E70000E9
:100F700004800080300882E000F0FF03000004508D
:100F800008030450FFFF00FE01460868006C70472C
:100F90002DE9F84304464FF000080020009014B9F2
:100FA0000120BDE8F883206920B12020005D0128E0
:100FB00000D100BF606D30B9204600F0FFF800207E
:100FC000A06584F8500020688168C1F3407131B198
:100FD00020688168644A1140816000BF00BF2068BA
:100FE00002F04EFDB0B920688168604A114041F0BE
:100FF0008051816000BF5E4800685E49B0FBF1F03F
:10100000401C4000009002E00098401E00900098B4
:101010000028F9D1206802F033FD48B9606D40F036
:1010200010006065A06D40F00100A0654FF0010860
:10103000206802F02AFD0646606D00F010000028CE
:101040007BD1002EFCD1606D20F4807040F0020056
:101050006065206802F00FFD68B9474802F00BFD9B
:1010600048B960684549896821F47C110143434AC5
:10107000916000BF00BF607E616B41EA4030E16873
:101080000843A16808432021095D40EA014520206A
:10109000005D012803D1A08C401E45EA4045A06AAE
:1010A00028B1208D00F47070E16A08430543206880
:1010B000C0683349084028432168C860206802F0AE
:1010C000D0FC07462EBB27BB207E002141EA8031A1
:1010D00094F8300041EA40052068C06844F20201FB
:1010E000884328432168C86094F83800012811D14A
:1010F000E06B40F00101206C0843616C0843A16C77
:1011000008432168096940F2FC7291430843216851
:10111000086105E02068006920F00100216808618D
:10112000206901280AD12068006B20F00F00E169D6
:10113000491E08432168086306E00CE02068006B44
:1011400020F00F0021680863606D20F0020040F07D
:101150000100606505E0606D40F0100060654FF0D3
:10116000010840461DE70000C0FFFF5FC0FFFF7F92
:101170000C000020400D0300000004500003045048
:1011800007C0F0FF10B504460A48C06A40F400509A
:101190000849C8620846C06A20F40050C862084680
:1011A000C06C20F40050C8640121034800F0F8FC32
:1011B00010BD0000001002400004004810B586B0C9
:1011C000044600BF1B48C06C40F400501949C86475
:1011D0000846C06C00F40050009000BF00BF1548E6
:1011E0008830006840F04050C1F8880000BF0846D1
:1011F000C06C40F00200C8640846C06C00F00200F9
:10120000009000BF00BF0120019003200290002049
:10121000039001A9084800F0ABFD022001900320D3
:1012200002900020039001A9034800F0A1FD06B040
:1012300010BD000000100240000400482DE9F041FC
:1012400004460E466069082801D108250CE0206894
:10125000C06800F0010030B1606D40F020006065B2
:101260000120BDE8F081042500F076FE074616E077
:10127000701CA0B100F070FEC01BB04200D876B95F
:1012800020680068284050B9606D40F00400606537
:1012900000BF002084F8500000BF0320E1E7206871
:1012A000006828400028E3D0606D40F4007060655D
:1012B000206802F0EFFB98B1607E88B92068006872
:1012C00000F0080008280BD1606D20F48070606584
:1012D000606D00F4805018B9606D40F001006065E9
:1012E0002068D0F80C80082D03D108202168086000
:1012F00005E008F4804010B90C2021680860002047
:10130000AFE770B50446206802F0BFFB00283FD16C
:1013100000BF94F85000012801D1022070BD0120C7
:1013200084F8500000BF2046FFF7E6F9054655BB9C
:10133000606D40F60161884340F480706065606DC7
:1013400000F48050B0F5805F04D1A06D20F006005D
:10135000A06501E00020A0651C202168086000BF96
:10136000002084F8500000BF2068C06800F00070C2
:1013700028B1606D20F4005040F480506065206812
:1013800002F092FB05E000BF002084F8500000E06E
:1013900002252846C2E710B5024692F82030012BFC
:1013A00001D0022B1CD101F0010028B11068806827
:1013B00040F080001468A06001F0020028B11068BD
:1013C000806840F400401468A06001F0040028B177
:1013D0001068806840F400001468A060002010BD10
:1013E000506A40F4802050620120F8E7F0B50446CE
:1013F0000D461E4694F8207020688368A86800B9DE
:1014000000E000BF012F01D0022F7DD103F08060EA
:1014100030B903F0006018B903F0805000287ED086
:10142000C3F30161012088403060A86860B9B5F855
:1014300000C0E86840EA4C5C206800F5C07000EB32
:101440000110C0F800C00FE0D5E901C040EACC00AF
:10145000D5F80CC040EA0C00D4F800C00CF5C07CF4
:101460000CEB011CCCF80000D5F810C0206800F58A
:10147000C07000EB0110C0F804C0287D01280ED117
:10148000206800F5C07000EB0110406840F4807CDB
:10149000206800F5C07000EB0110C0F804C0D079DE
:1014A000000692F806C040EA0C4092F805C040EAF7
:1014B0000C2092F804C040EA0C00D4F800C00CF5EF
:1014C000C07C0CEB011CCCF80C00D078000692F824
:1014D00002C040EA0C4092F801C040EA0C2092F8A9
:1014E00000C040EA0C00D4F800C00CF5C07C0CEB46
:1014F000011CCCF80800206800F5C07000EB01105A
:10150000006840F0010C01E00FE008E0206800F501
:10151000C07000EB0110C0F800C00020F0BD606A90
:1015200040F4001060620120F8E7606A40F4802017
:1015300060620120F2E7F0B504460A46216894F89B
:101540002050012D01D0022D74D1D1F8000240F0BD
:101550000100C1F80002107D00F01F06012000FA12
:1015600006F3D1F81C029843C1F81C02D069C8B92F
:10157000D1F80C029843C1F80C02908880B2968989
:1015800040EA064601F51070576940F83760108848
:1015900080B2168940EA064601F51070576900EBE3
:1015A000C7004660D069012819D1D1F80C02184350
:1015B000C1F80C02908880B2168840EA064601F510
:1015C0001070576940F83760908980B2168940EAF8
:1015D000064601F51070576900EBC7004660906938
:1015E00028B9D1F804029843C1F8040204E0D1F804
:1015F00004021843C1F80402106928B9D1F8140292
:101600009843C1F8140204E0D1F814021843C1F859
:101610001402106A012804D1D1F81C021843C1F841
:101620001C02D1F8000220F00100C1F800020020E5
:10163000F0BDFFE7606A40F4802060620120F7E7B8
:1016400010B50246002092F82030012B01D0022B69
:1016500009D121B91468E46804F0030003E01468B8
:10166000246904F0030010BD70B5044694F82050BE
:10167000012D01D0022D7DD151B92068C06800F044
:10168000030080B9606A40F400106062012070BD00
:101690002068006900F0030028B9606A40F4001077
:1016A00060620120F3E7206800F5D87000EB0110BC
:1016B000006800F004009060906840B9206800F570
:1016C000D87000EB01100068400D106007E0206842
:1016D00000F5D87000EB01100068C0085060206869
:1016E00000F5D87000EB0110006800F00200D06037
:1016F000206800F5D87000EB0110406800F00F0082
:10170000082802D30820106108E0206800F5D8708E
:1017100000EB0110406800F00F001061206800F538
:10172000D87000EB0110406800F47F40000A90611F
:10173000206800F5D87000EB01104068000C506183
:10174000206800F5D87000EB0110806818702068E0
:1017500000F5D87000EB0110806800F47F40000AAB
:101760005870206800F5D87000EB0110806800F414
:101770007F0000E03CE0000C9870206800F5D87015
:1017800000EB01108068000ED870206800F5D8705A
:1017900000EB0110C0681871206800F5D87000EBEC
:1017A0000110C06800F47F40000A5871206800F5FD
:1017B000D87000EB0110C06800F47F00000C987135
:1017C000206800F5D87000EB0110C068000ED871D9
:1017D00031B92068C06840F020002668F06005E05C
:1017E0002068006940F020002668306100204EE744
:1017F000606A40F480206062012048E701460020D2
:1018000091F82020012A01D0022A11D10B689B688F
:1018100003F0806303B1401C0B689B6803F0006316
:1018200003B1401C0B689B6803F0805303B1401C5C
:10183000704770B504460CB9012070BD94F82000C3
:1018400010B9204600F0B0F82068006840F00100B0
:101850002168086000F080FB05460DE000F07CFB8D
:10186000401B0A2808D9606A40F4003060620520F5
:1018700084F820000120E0E72068406800F00100C3
:101880000028EBD02068006820F002002168086082
:1018900000F062FB05460DE000F05EFB401B0A28ED
:1018A00008D9606A40F400306062052084F82000A6
:1018B0000120C2E72068406800F002000028EBD158
:1018C000207E012806D12068006840F08000216851
:1018D000086005E02068006820F08000216808604A
:1018E000607E012806D12068006840F04000216831
:1018F000086005E02068006820F04000216808606A
:10190000A07E012806D12068006840F020002168F0
:10191000086005E02068006820F020002168086069
:10192000E07E012806D12068006820F010002168C0
:10193000086005E02068006840F010002168086039
:10194000207F012806D12068006840F00800216847
:10195000086005E02068006820F008002168086041
:10196000607F012806D12068006840F004002168EB
:10197000086005E02068006820F004002168086025
:10198000D4E9020108432169084361690843616899
:10199000491E08432168C86100206062012084F864
:1019A0002000002049E7000010B586B00446344905
:1019B0002068884261D100BF00BF3248C06C40F04F
:1019C00002003049C8640846C06C00F00200009074
:1019D00000BF00BF00BF00BF00BF0846C06C40F0A2
:1019E0000200C8640846C06C00F00200009000BF0E
:1019F00000BF00BF00BF00BF0846C06C40F0010040
:101A0000C8640846C06C00F00100009000BF00BF31
:101A100000BF00BF0846806D40F000708865084632
:101A2000806D00F00070009000BF00BF481501906D
:101A300002200290012003900220049009200590CA
:101A400001A9114800F094F94FF480700190022030
:101A500002900020039001A90B4800F089F94FF48F
:101A6000805001900120029000200390049001A971
:101A70004FF0904000F07CF900BF06B010BD0000B0
:101A800000640040001002400004004870B50446A5
:101A900094F82000012822D1022084F82000206838
:101AA000006820F001002168086000F055FA054642
:101AB0000DE000F051FA401B0A2808D9606A40F492
:101AC00000306062052084F82000012070BD20688D
:101AD000406800F001000028EBD16062F6E7606A20
:101AE00040F4002060620120F0E70146002291F8F6
:101AF0002500022808D00420C86300BF002081F818
:101B0000240000BF012070470868006820F00E0024
:101B10000B6818600868006820F001000B68186006
:101B200091F8440000F01C03012098400B6C5860B1
:101B3000012081F8250000BF002081F8240000BFAB
:101B40001046E0E770B50446002594F82500022809
:101B500003D00420E063012520E02068006820F025
:101B60000E00216808602068006820F001002168EC
:101B7000086094F8440000F01C0101208840216CAA
:101B80004860012084F8250000BF002084F824006C
:101B900000BFA06B10B12046A16B8847284670BDDE
:101BA000F0B50B46002178E001258D4005EA0302DF
:101BB000002A71D03B4D8E0855F826408D072E0F18
:101BC0000F25B5402C40B0F1904F01D1002514E015
:101BD000354DA84201D101250FE0344DA84201D175
:101BE00002250AE0324DA84201D1032505E0314D1E
:101BF000A84201D1042500E007258E07360FB54025
:101C0000A54223D12C4D2D6895432B4E3560351DB3
:101C10002D689543361D3560274D0C352D6895434D
:101C2000254E0C363560351F2D689543361F3560BF
:101C30008D072E0F0F2505FA06F41A4D8E0855F85C
:101C40002650A543174E8F0846F8275005684F00C9
:101C50000326BE4035430560CE0800F1200555F847
:101C600026504E07F70E0F26BE40B543CF0800F1B1
:101C7000200646F8275085684F000326BE40B5432E
:101C80008560466801258D40AE434660C5684F00BB
:101C90000326BE40B543C560491C23FA01F5002D5B
:101CA00082D1F0BD0800014000040048000800484F
:101CB000000C0048001000480004014010B5044624
:101CC000012C05D122490870062000F095F93DE06D
:101CD000022C06D101201E494870072000F08CF923
:101CE00034E0042C06D1012019498870082000F046
:101CF00083F92BE0082C06D101201549C870092072
:101D000000F07AF922E0102C06D101201049087168
:101D10000A2000F071F919E0202C06D101200C49AD
:101D20004871172000F068F910E0402C06D101201E
:101D300007498871172000F05FF907E0802C05D172
:101D400001200349C871172000F056F910BD0000AA
:101D50001000002010B5044604480068204020B15F
:101D6000024804602046FFF7A9FF10BD140401409B
:101D700078B503460A460021C5E001268E40156865
:101D800005EA0604002C73D0157905F00305012D32
:101D900004D0157905F00305022D13D198684E0083
:101DA0000325B540A8434E00D568B5402843986048
:101DB000586801258D40A8431579C5F300158D405D
:101DC00028435860157905F00305032D09D0D8681C
:101DD0004E000325B540A8434E009568B540284302
:101DE000D860157905F00305022D13D1CE0803F153
:101DF000200555F826004D07EE0E0F25B540A843E7
:101E00004E07F60E1569B5402843CE0803F12005AC
:101E100045F8260018684E000325B540A8431579FB
:101E200005F003054E00B54028431860556805F4D9
:101E30004035002D66D000BF364D2D6E45F00105B2
:101E4000344E356635462D6E05F00105009500BF10
:101E500000BF4FEAB6358E0855F826008D072E0FC5
:101E60000F25B540A843B3F1904F02D1002515E0EE
:101E700048E0294DAB4201D101250FE0274DAB428F
:101E800001D102250AE0264DAB4201D1032505E030
:101E9000244DAB4201D1042500E007258E07360F03
:101EA000B5402843204D8E0845F826001F4D286870
:101EB000A043556805F4801505B120431B4D2860EB
:101EC0002D1D2868A043556805F4001505B1204371
:101ED000164D2D1D2860154D2D1F2868A0435568EF
:101EE00005F4003505B12043104D2D1F28602D1F2E
:101EF0002868A043556805F4803505B120430B4D93
:101F0000083D2860491C1568CD40002D7FF435AF91
:101F100078BD00000010024000040048000800489E
:101F2000000C00480010004808000140080401406F
:101F3000024613690B400BB1012000E000207047FE
:101F40000AB1816100E081627047000001480068C9
:101F5000000C7047002004E0014800687047000052
:101F600050000020034800680349097808440149EB
:101F700008607047500000205800002010B5002471
:101F8000032000F0B1F80F2000F008F808B1012498
:101F900001E000F02FF8204610BD000070B50446A7
:101FA000002511480078D8B10F4800784FF47A71B5
:101FB000B1FBF0F00D490968B1FBF0F6304600F0D6
:101FC000A7FD58B9102C07D200222146501E00F060
:101FD00049F80748046004E0012502E0012500E01B
:101FE0000125284670BD0000580000200C0000208C
:101FF000540000207047000010B501460846002834
:1020000017DB00F01F0301229A400B4B440943F8F1
:10201000242000BF00BF00BFBFF34F8F00BF00BF31
:1020200000BF00BF00BF00BFBFF36F8F00BF00BF86
:1020300000BF00BF10BD000080E100E0014608467F
:1020400000280DDB00BF00BF00F01F0301229A40F3
:1020500043099B0003F1E023C3F8002100BF00BF48
:1020600000BF70472DE9F05F80460D4616460027F9
:1020700002F028F9074639462A46334601F00700A0
:10208000C0F1070ABAF1040F02D94FF0040A01E0C7
:10209000C0F1070AD14600F1040ABAF1070F02D2D3
:1020A0004FF0000A01E0A0F1030AD4464FF0010A04
:1020B0000AFA09FAAAF1010A0AEA020A0AFA0CFA69
:1020C0004FF0010B0BFA0CFBABF1010B0BEA030B0E
:1020D0004AEA0B042146404602F0FCF800F000B842
:1020E00030BCBDE8C09F000000BF00F00702064BF7
:1020F00019684FF6FF031940044B0B4343EA0221D2
:10210000014B196000BF70470CED00E00000FA05BC
:102110000248006800F4C060704700000070004092
:102120002DE9F04104460D4614B90120BDE8F081C7
:102130006348006800F00700A8420ED260480068BB
:1021400020F0070028435E4908600846006800F058
:102150000700A84201D00120E8E7207800F0020043
:1021600002280ED15749A068896801F0F001884221
:1021700007D95448806820F0F000A168084351490D
:102180008860207800F0010078B36068032806D1E9
:102190004C48006800F00070D8B90120C6E76068BC
:1021A000022806D14748006800F4003088B90120B1
:1021B000BCE7606830B94348006800F0020040B9ED
:1021C0000120B3E73F48006800F4806008B90120AF
:1021D000ACE73C48806820F0030061680843394957
:1021E0008860FFF7B9FE064609E010E0FFF7B4FE8D
:1021F000801B41F28831884201D9032096E731489B
:10220000806800F00C006168B0EB810FEED120789F
:1022100000F0020002280ED12A49A068896801F066
:10222000F001884207D22748806820F0F000A168BA
:102230000843244988602248006800F00700A8424B
:102240000ED91F48006820F0070028431C49086089
:102250000846006800F00700A84201D0012065E7A9
:10226000207800F00400042807D11648806820F484
:10227000E060E168084313498860207800F00800B6
:10228000082808D10F48806820F46050216940EA8E
:10229000C1000C49886000F01DF80A498968C1F343
:1022A0000311094A515C01F01F01C8400749086049
:1022B00007480068FFF772FE0746384636E7000019
:1022C0000020024000100240845A00080C00002048
:1022D00054000020F0B500230020DFF8D4C0DCF863
:1022E00008C00CF00C01DFF8C8C0DCF80CC00CF022
:1022F000030719B10C291ED1012F1CD1DFF8B0C082
:10230000DCF800C00CF0080CBCF1000F06D1DFF8BF
:10231000A0C0DCF894C0CCF3032305E0DFF890C044
:10232000DCF800C0CCF30313DFF888C05CF823307E
:1023300041B9184606E0042901D11F4802E00829E6
:1023400000D11E480C2932D1DFF864C0DCF80CC083
:102350000CF00304012C09D0022C02D0032C04D170
:1023600001E0154A04E0154A02E000BF1A4600BF2A
:1023700000BFDFF83CC0DCF80CC0CCF3021C0CF151
:102380000106DFF82CC0DCF80CC0CCF3062C0CFBEB
:1023900002FCBCFBF6F2DFF818C0DCF80CC0CCF392
:1023A000416C0CF1010C4FEA4C05B2FBF5F0F0BDAD
:1023B000001002409C5A00080024F40000127A0029
:1023C0002DE9F843044614B90120BDE8F883F94823
:1023D000806800F00C06F748C06800F0030720781A
:1023E00000F01000102877D11EB10C2E76D1012FED
:1023F00074D1F048006800F0020018B1A06908B973
:102400000120E2E7EB48216A006800F0080020B1F3
:10241000E848006800F0F00005E0E6489430006805
:1024200000F47060000981421FD9206A01F0EEFBC0
:1024300008B10120C9E700BFDE48006840F008008D
:10244000DC4908600846006820F0F000216A084373
:10245000D849086000BF0846406820F47F40E16921
:1024600040EA0120D34948601FE000BFD14800681E
:1024700040F00800CF4908600846006820F0F000EE
:10248000216A0843CB49086000BF0846406820F431
:102490007F40E16940EA0120C64948602EB9206AC0
:1024A00001F0B4FB08B101208FE7FFF713FFC1492A
:1024B0008968C1F30311C04A515C01F01F01C84093
:1024C000BE490860BE480068FFF768FD8046B8F165
:1024D000000F4ED0404678E74BE0FFE7A06980B39D
:1024E000B448006840F00100B2490860FFF734FDCD
:1024F000054606E0FFF730FD401B022801D9032006
:1025000063E7AC48006800F002000028F2D000BF8A
:10251000A848006840F00800A6490860084600681E
:1025200020F0F000216A0843A249086000BF084675
:10253000406820F47F40E16940EA01209D494860FD
:1025400017E0FFE79B48006820F001009949086008
:10255000FFF702FD054606E0FFF7FEFC401B0228E0
:1025600001D9032031E79348006800F002000028F9
:10257000F2D1207800F0010000285CD0082E03D0B2
:102580000C2E0AD1032F08D18A48006800F40030CD
:1025900088B3606878BB012017E700BF6068B0F5BA
:1025A000803F06D18348006840F48030814908604C
:1025B0001AE06068B0F5A02F0BD17E48006840F4A7
:1025C00080207C4908600846006840F4803008603C
:1025D0000AE07848006820F48030764908600846B0
:1025E000006820F48020086000BF606890B1FFF7A9
:1025F000B3FC054607E01EE0FFF7AEFC401B642875
:1026000001D90320E1E66B48006800F4003000289F
:10261000F2D010E0FFF7A0FC054606E0FFF79CFCB7
:10262000401B642801D90320CFE66248006800F40B
:1026300000300028F2D1207800F00200022852D1A8
:10264000042E03D00C2E14D1022F12D15948006849
:1026500000F4806018B1E06808B90120B5E655487B
:10266000406820F0F850217C40EA01605149486000
:1026700039E0E06800B34F48006840F480704D498D
:102680000860FFF769FC054606E0FFF765FC401BA4
:10269000022801D9032098E64648006800F48060CB
:1026A0000028F2D04348406820F0F850217C40EAEE
:1026B00001604049486016E03E48006820F48070A0
:1026C0003C490860FFF748FC054606E0FFF744FC7C
:1026D000401B022801D9032077E63648006800F441
:1026E00080600028F2D1207800F00800082836D158
:1026F0006069D0B12F489430006840F001002D4946
:10270000C1F89400FFF728FC054606E0FFF724FC1B
:10271000401B022801D9032057E626489430006860
:1027200000F002000028F1D019E02248943000683F
:1027300020F001001F49C1F89400FFF70DFC054689
:1027400006E0FFF709FC401B022801D903203CE604
:1027500018489430006800F002000028F1D1207879
:1027600000F00400042872D14FF000091148806D78
:1027700000F0805078B900BF0E48806D40F0805066
:102780000C4988650846806D00F08050009000BFBD
:1027900000BF4FF001090B48006800F4807000BBD7
:1027A0000848006840F4807006490860FFF7D4FBD1
:1027B000054610E000100240845A00080C0000207A
:1027C0005400002000700040FFF7C6FB401B0228A9
:1027D00001D90320F9E5CA48006800F48070002898
:1027E000F2D000BFA068012808D1C648006840F0B8
:1027F0000100C4499039C1F8900021E0A068052883
:102800000FD1C048006840F00400BE499039C1F8BB
:1028100090000846D0F8900040F00100C1F8900008
:102820000EE0B848006820F00100B6499039C1F8C0
:1028300090000846D0F8900020F00400C1F8900005
:1028400000BFA068A0B1FFF787FB054609E02EE0B6
:10285000FFF782FB401B41F28831884201D90320F7
:10286000B3E5A848006800F002000028F0D012E0AC
:10287000FFF772FB054608E0FFF76EFB401B41F2D5
:102880008831884201D903209FE59E48006800F006
:1028900002000028F0D1B9F1010F07D19948903812
:1028A000806D20F0805097499039886500BF20786E
:1028B00000F02000202838D1606AD8B19148083053
:1028C000006840F001008F499039C1F89800FFF787
:1028D00043FB054606E0FFF73FFB401B022801D9FA
:1028E000032072E587480830006800F002000028E5
:1028F000F1D01AE083480830006820F001008149D7
:102900009039C1F89800FFF727FB054606E0FFF76E
:1029100023FB401B022801D9032056E579480830E3
:10292000006800F002000028F1D1A06A00287DD0E4
:10293000A06A02287BD173489038C76807F003016A
:10294000E06A814225D107F07001206B401EB1EB97
:10295000001F1ED107F4FE41606BB1EB002F18D1B0
:1029600007F078413820005DB1EBC06F11D107F45A
:10297000C001A08F0122C2EB5000B1EB405F08D133
:1029800007F0C0614020005DC2EB5000B1EB406F2A
:1029900066D00C2E62D05B489038006800F08060F2
:1029A00008B1012011E557489038006820F0807088
:1029B000544990390860FFF7CFFA054606E0FFF763
:1029C000CBFA401B022801D90320FEE44D48903881
:1029D000006800F000700028F1D1D4E90B10401E0F
:1029E00041EA0011606B41EA0021A08F0122C2EB95
:1029F000500041EA40514020005DC2EB500041EAE6
:102A000040613820005D41EAC0603E499039C968A4
:102A10003D4A114008433B499039C8600846006868
:102A200040F0807008600846C06801E053E03DE077
:102A300040F08070C860FFF78FFA054606E0FFF7A8
:102A40008BFA401B022801D90320BEE42D489038A0
:102A5000006800F000700028F1D04FE00120B4E4DD
:102A600028489038006800F00070A0BB25489038D6
:102A7000006840F080702349903908600846C068BB
:102A800040F08070C860FFF767FA054606E0FFF780
:102A900063FA401B022801D9032096E419489038B4
:102AA000006800F000700028F1D027E00C2E23D041
:102AB00014489038006820F08070124990390860FE
:102AC000FFF74AFA054607E0FFF746FA401B0228DF
:102AD00002D9032079E411E00A489038006800F038
:102AE00000700028F0D107489038C06807490840B6
:102AF00004499039C86001E0012066E4002064E4E4
:102B000000700040901002408C809D01FCFFEEFEA2
:102B100070B504462546681EB0F1807F01D30120C0
:102B20000FE0681E4FF0E02148610F214FF0FF30A9
:102B300001F0D0FB00204FF0E02188610720086100
:102B4000002070BD704770477047024600BF92F882
:102B50003C00012801D102207047012082F83C008E
:102B600000BF022082F83D0010684161012082F818
:102B70003D0000BF002082F83C0000BF00BFEBE733
:102B800010B504466748007800F0800000283ED168
:102B90006448007800F04000E0B16248007840F0FE
:102BA00080006049087000215F4800F0F1FC5F4937
:102BB00008805D480068006A20F00A005A490968E8
:102BC000086259480068006A40F0020056490968E6
:102BD00008621CE00020534908705449088051489D
:102BE000007840F040004F49087000204E490968C5
:102BF00048624D480068006A20F00A004A490968A6
:102C0000086249480068006A4749096808624848FC
:102C1000007800F0800000283ED14548007800F0A0
:102C20004000E0B14248007840F080004049087020
:102C30000021404800F0ACFC3F4908803D48006856
:102C4000006A20F00A003B490968086239480068B8
:102C5000006A40F002003749096808621CE0002061
:102C600033490870344908803148007840F040000A
:102C70002F49087000202F49096848622D480068D4
:102C8000006A20F00A002B49096808622948006898
:102C9000006A2849096808622848007800F0800026
:102CA00000BB2648007800F04000E0B123480078DF
:102CB00040F08000214908700421214800F068FCA0
:102CC000204908801E480068006A20F0A0001C49C6
:102CD000096808621A480068006A40F02000184934
:102CE000096808621CE00020144908701549088032
:102CF0001248007840F04000104908700020104948
:102D0000096848620E480068006A20F0A0000C497B
:102D1000096808620A480068006A09490968086287
:102D200010BD0000600000205C0400206200002054
:102D300068000020F40400206A00002064000020E5
:102D4000A8040020660000202DE9F04104460D464D
:102D50001646002700BF94F83C00012802D102204B
:102D6000BDE8F081012084F83C0000BF96B9EB6813
:102D7000D5E90012206801F043F92068806920F04D
:102D80000C002168886120688069A968084321686F
:102D9000886141E0042E13D1EB68D5E90012206868
:102DA00001F05CF92068806920F440602168886146
:102DB00020688069A96840EA0120216888612BE0C9
:102DC000082E12D1EB68D5E90012206801F063F9F2
:102DD0002068C06920F00C002168C8612068C069C3
:102DE000A96808432168C86116E00C2E13D1EB686E
:102DF000D5E90012206801F06AF92068C06920F462
:102E000040602168C8612068C069A96840EA012063
:102E10002168C86100E0012700BF002084F83C0061
:102E200000BF38469CE710B50446022084F83D00F8
:102E300000BF2068006A41F21111084050B92068B3
:102E4000006A8910084028B92068006820F0010055
:102E50002168086000BF204600F05CF8002084F87C
:102E6000480000BF84F83E0000213F20015540206B
:102E7000015541200155422001554320015500BF15
:102E800000BF002084F8440045200155462001552C
:102E90004720015500BF002084F83D0000BF84F8A2
:102EA0003C0000BF10BD10B504460CB9012010BD98
:102EB00094F83D0028B9002084F83C00204600F03A
:102EC0002BF8022084F83D00211D206801F04CF809
:102ED000012084F8480000BF84F83E0001213F2013
:102EE0000155402001554120015542200155432004
:102EF000015500BF00BF012084F844004520015562
:102F0000462001554720015500BF012084F83D00AF
:102F10000020CCE77047000010B586B0044620685A
:102F2000B0F1804F3AD1207F012837D100BF00BFD8
:102F30003A48806D40F00100384988650846806D48
:102F400000F00100009000BF00BF00BF00BF00BF45
:102F50000846C06C40F00100C8640846C06C00F030
:102F60000100009000BF00BF00BF4FF4004001907F
:102F7000022002900020039003200490012005907D
:102F800001A94FF09040FEF7F3FE032201211C201F
:102F9000FFF768F81C20FFF751F800BF2068B0F178
:102FA000804F38D1207F022835D100BF00BF1B4899
:102FB000806D40F00100194988650846806D00F079
:102FC0000100009000BF00BF00BF00BF00BF084667
:102FD000C06C40F00200C8640846C06C00F00200FB
:102FE000009000BF00BF00BF0820019002200290A7
:102FF00000200390032004900120059001A90848B7
:10300000FEF7B6FE032201211C20FFF72BF81C203F
:10301000FFF714F800BF06B010BD0000001002401A
:10302000000400482DE9F04304460D46002715B979
:1030300094F83E0015E0042D02D13F20005D10E021
:10304000082D02D14020005D0BE00C2D02D1412063
:10305000005D06E0102D02D14220005D01E043201A
:10306000005D804615B994F844000BE0042D02D1B0
:103070004520005D06E0082D02D14620005D01E0FC
:103080004720005D8146B8F1010F02D1B9F1010F6F
:1030900002D00120BDE8F0831DB9022084F83E0073
:1030A0001AE0042D03D102213F20015514E0082D20
:1030B00003D10221402001550EE00C2D03D1022145
:1030C0004120015508E0102D03D102214220015575
:1030D00002E00221432001551DB9022084F844007A
:1030E0000EE0042D03D102214520015508E0082DF2
:1030F00003D102214620015502E00221472001555B
:1031000035B1042D0BD0082D10D00C2D1CD114E09E
:103110002068C06840F002002168C86016E020689E
:10312000C06840F004002168C8600FE02068C068F3
:1031300040F008002168C86008E02068C06840F0DE
:1031400010002168C86001E0012700BF00BF07BB75
:1031500001222946206800F041FF12492068884278
:1031600007D02068B0F1804F03D00F492068884213
:1031700010D1206880680D4900EA0106062E0FD0A4
:10318000B6F5803F0CD02068006840F0010021684F
:10319000086005E02068006840F0010021680860D0
:1031A000384677E7002C014000400140070001004D
:1031B00070B504460D46002635B1042D0BD0082D00
:1031C00010D00C2D1CD114E02068C06820F0020043
:1031D0002168C86016E02068C06820F004002168FB
:1031E000C8600FE02068C06820F008002168C8604F
:1031F00008E02068C06820F010002168C86001E085
:10320000012600BF00BF002E4BD1002229462068B6
:1032100000F0E4FE00BF2068006A41F2111108408E
:1032200050B92068006A8910084028B920680068F1
:1032300020F001002168086000BF1DB9012084F85A
:103240003E001AE0042D03D101213F20015514E076
:10325000082D03D10121402001550EE00C2D03D192
:1032600001214120015508E0102D03D10121422008
:10327000015502E00121432001551DB9012084F8C8
:1032800044000EE0042D03D101214520015508E042
:10329000082D03D101214620015502E001214720DC
:1032A0000155304670BD70B504462068C568206879
:1032B000066906F00200022819D105F00200022872
:1032C00015D1401F2168086101202077206880699E
:1032D00000F0030018B12046FFF752FC05E020463D
:1032E00000F0A7F8204600F0A5F80020207706F0AF
:1032F0000400042819D105F00400042815D1C043A6
:1033000021680861022020772068806900F44070FD
:1033100018B12046FFF734FC05E0204600F089F89C
:10332000204600F087F80020207706F008000828E3
:1033300019D105F00800082815D1C043216808619B
:10334000042020772068C06900F0030018B12046EF
:10335000FFF716FC05E0204600F06BF8204600F071
:1033600069F80020207706F01000102819D105F028
:103370001000102815D1C04321680861082020776B
:103380002068C06900F4407018B12046FFF7F8FBD0
:1033900005E0204600F04DF8204600F04BF80020F4
:1033A000207706F0010048B105F0010030B16FF060
:1033B000010021680861204600F03EF806F0800018
:1033C000802809D105F08000802805D1C0432168FC
:1033D00008612046FFF7B7FB06F48070B0F5807FE8
:1033E0000AD105F08000802806D16FF48070216832
:1033F00008612046FFF7A6FB06F04000402809D1EF
:1034000005F04000402805D1C043216808612046EE
:1034100000F0D7F806F02000202809D105F02000A0
:10342000202805D1C043216808612046FFF78CFBA6
:1034300070BD7047704700000168B1F1804F5ED1E8
:10344000017F01295BD14949097801F0800111BB55
:103450004649097801F04001E9B14449097801F091
:103460003F013F2918D142490968096A21F00A0140
:103470003F4A126811623E490968096A3C4A12686B
:1034800011623A49097841F08001384A11704FF6CB
:10349000FF71384A118004E034490978491C334AE5
:1034A00011703549097801F0800111BB3249097862
:1034B00001F04001E9B13049097801F03F013F29AD
:1034C00018D12E490968096A21F00A012B4A1268AD
:1034D00011622A490968096A284A12681162264954
:1034E000097841F08001244A11704FF6FF71244A97
:1034F000118004E020490978491C1F4A11700168B5
:10350000B1F1804F30D1017F02292DD11D490978B9
:1035100001F0800111BB1B49097801F04001E9B1BC
:103520001849097801F03F013F2918D11649096867
:10353000096A21F0A001144A12681162124909684F
:10354000096A114A126811620E49097841F0800136
:103550000C4A11704FF6FF710C4A118004E00949C2
:103560000978491C074A117070470000600000206C
:103570005C0400206200002068000020F4040020A9
:103580006A00002064000020A804002066000020DB
:103590000246002031B1042907D0082908D00C299F
:1035A0000CD108E01368586B09E01368986B06E0CB
:1035B0001368D86B03E01368186C00E000BF00BF0D
:1035C0007047704770477047704700002DE9F0471B
:1035D00004462068C569206806682068876840F648
:1035E0000F0005EA0009B9F1000F0CD105F0200029
:1035F00048B106F0200030B1A06E10B12046A16E97
:103600008847BDE8F087B9F1000F7DD007F00100D1
:1036100018B9C14830400028F7D005F0010058B172
:1036200006F4807040B1012021680862D4F884005B
:1036300040F00100C4F8840005F0020058B107F022
:10364000010040B1022021680862D4F8840040F0F3
:103650000400C4F8840005F0040058B107F001002C
:1036600040B1042021680862D4F8840040F00200D0
:10367000C4F8840005F0080070B106F0200010B90D
:1036800007F0010040B1082021680862D4F88400E6
:1036900040F00800C4F8840005F4006060B106F052
:1036A000806048B14FF4006021680862D4F884005B
:1036B00040F02000C4F88400D4F8840000284BD0E7
:1036C00005F0200038B106F0200020B1A06E10B146
:1036D0002046A16E8847D4F884A02068806800F056
:1036E0004000402802D00AF0280070B3204600F0C5
:1036F00018FD2068806800F04000402821D100BFFC
:1037000000BF2168083100E027E051E8001F21F0E8
:1037100040002168083141E80002002AF1D100BFD1
:10372000606F50B17D48616F8863606FFEF70AFA81
:1037300090B1606F816B88470EE02046FFF744FF31
:103740000AE02046FFF740FF06E0FFE72046FFF7CC
:103750003BFF0020C4F8840053E7206E012872D19B
:1037600005F0100000286ED006F010000028FAD0F6
:103770001020216808622068806800F0400040281E
:1037800062D1606F006840681FFA80F8B8F1000FDE
:1037900058D0B4F85800404554DDA4F85A80606F02
:1037A0000068006800F02000F0BB00BF00BF216887
:1037B00051E8001F21F48070226842E800010029CE
:1037C000F5D100BF00BF00BF2168083151E8001FDC
:1037D00021F001002168083141E80002002AF3D1FC
:1037E00000BF00BF00BF2168083151E8001F21F071
:1037F00040002168083141E80002002AF3D100BFEF
:103800002020C4F880000020206600BF00BF21688F
:1038100051E8001F21F01000226842E80001002951
:10382000F5D100BF606F00E001E0FEF75EF9022015
:103830006066B4F85800B4F85A20801A81B2204665
:10384000FFF7C0FEDDE641E034F8580F6188401A0A
:103850001FFA80F86088583CB8B3B8F1000F34D034
:1038600000BF00BF216851E8001F21F4907022685A
:1038700042E800010029F5D100BF00BF00BF216868
:10388000083151E8001F21F001002168083141E8AA
:103890000002002AF3D100BF2020C4F880000020DD
:1038A0002066A06600BF00BF216851E8001F21F01C
:1038B0001000226842E800010029F5D100BF022073
:1038C000606641462046FFF77DFE9AE605F48010CB
:1038D00050B107F4800038B14FF4801021680862BD
:1038E0002046FFF770FE8CE605F0800040B106F040
:1038F000800028B1E06E10B12046E16E884780E676
:1039000005F0400030B106F0400018B1204600F04C
:103910003BFC76E600BF74E6200100040B41000882
:103920002DE9F84F04460E4617469A46D4F8800013
:1039300020287CD106B117B9012000F07AB8002008
:103940005834E0622220A0620020A060FEF704FB51
:10395000834627806780583C00BFA068B0F5805F31
:103960000AD1206920B940F2FF10A4F85C0020E0E1
:10397000FF20A4F85C001CE0A06848B9206918B9D1
:10398000FF20A4F85C0014E07F20A4F85C0010E0A5
:10399000A068B0F1805F09D1206918B97F20A4F830
:1039A0005C0006E03F20A4F85C0002E00020A4F8E0
:1039B0005C0000BFB4F85C90A068B0F5805F04D1F3
:1039C000206910B90025B04602E035464FF00008E6
:1039D00023E05B46002220212046CDF800A000F025
:1039E000EAFB20B12020C4F880000320A5E745B9F8
:1039F0002068808C00EA0900A8F8000008F102089D
:103A000006E02068808C09F0FF01084028706D1CDA
:103A1000B4F85A00401EA4F85A00B4F85A0000281E
:103A2000D7D12020C4F88000002086E7FFE70220DD
:103A300083E718BCBDE8E08F704700BFFEE70000D9
:103A40008168024A1140491C81607047C0FFFF7FB6
:103A5000024602F1600000EB8103186800F0F840B4
:103A6000704701468868C0F3C00070470146886807
:103A7000C0F3400070470146886800F001007047BD
:103A800001468868C0F30070704701468868C0F33B
:103A9000800070470146C86800F4406008B9012002
:103AA00070470020FCE700008168024A1140091DB0
:103AB00081607047C0FFFF7F70B500F11404C1F34F
:103AC000406504EB85031C68C1F304560725B54027
:103AD000AC43C1F3045502FA05F52C431C6070BDDC
:103AE000826822F0E0720A438260704710B500F1EC
:103AF000600404EB81031C6824F0004414431C6040
:103B000010BD00BFFEE770477047000000B587B0EA
:103B100000BF00BF3B48C06C40F001003949C86499
:103B20000846C06C00F00100019000BF00BF00BF5C
:103B300000BF00BF0846C06C40F00200C8640846E1
:103B4000C06C00F00200019000BF00BF00BF4FF446
:103B5000004002900120039004900220059002A9E9
:103B60004FF09040FEF704F90820029001200390E6
:103B700004900220059002A92348FEF7F9F80420DA
:103B800002900120039004900220059002A91E4893
:103B9000FEF7EEF84FF480700290012003900020B1
:103BA00004900220059002A94FF09040FEF7E0F843
:103BB0004FF4007002900120039000200490022036
:103BC000059002A94FF09040FEF7D2F800BF002206
:103BD00004210D48FEF7B4F900BF00BF00224FF4E6
:103BE00080714FF09040FEF7ABF900BF00BF00229C
:103BF0004FF400714FF09040FEF7A2F900BF07B0FC
:103C000000BD00000010024000040048F8B5044662
:103C100000262348806D00F0805018B1FEF778FA36
:103C2000054616E000BF1E48806D40F080501C49DC
:103C300088650846806D00F08050009000BF00BF8E
:103C4000FEF766FA05461648806D20F0805014494C
:103C50008865B5F5007F07D1802C10D9A02C01D93B
:103C600002260CE001260AE0802C01D9032606E09A
:103C7000802C01D1022602E0702C00D101260948D7
:103C8000006820F0070030430649086008460068D5
:103C900000F00700B04201D00120F8BD0020FCE791
:103CA000001002400020024000B587B000BF00BFF6
:103CB0005348C06C40F002005149C8640846C06CCB
:103CC00000F00200019000BF00BF00BF00BF00BFB6
:103CD0000846C06C40F00200C8640846C06C00F0A2
:103CE0000200019000BF00BF00BF00BF00BF084638
:103CF000C06C40F00200C8640846C06C00F00200CE
:103D0000019000BF00BF00BF00BF00BF0846C06CED
:103D100040F00200C8640846C06C00F00200019048
:103D200000BF00BF00BF00BF00BF0846C06C40F02E
:103D30000400C8640846C06C00F00400019000BF95
:103D400000BF00BF4FF40040029001200390049098
:103D50000220059002A92B48FEF70AF84FF4804094
:103D600002900120039004900220059002A92548AA
:103D7000FDF7FEFF4FF400500290012003900490E5
:103D80000220059002A91F48FDF7F2FF4FF4805072
:103D900002900120039004900220059002A9194886
:103DA000FDF7E6FF4FF400500290012003900490CD
:103DB0000220059002A91448FDF7DAFF00BF002297
:103DC0004FF400410F48FEF7BBF800BF00BF0022D0
:103DD0004FF480410B48FEF7B3F800BF00BF00224C
:103DE0004FF400510748FEF7ABF800BF00BF0022B8
:103DF0004FF480510348FEF7A3F800BF07B000BDA1
:103E0000001002400004004800080048704710B548
:103E1000FEF7A8F810BD00000348006840F47000E9
:103E2000014908607047000088ED00E010B50024EB
:103E300039480068006900F0010090B33748006815
:103E4000FF2808D935480068A0F58070334908601C
:103E50004FF4807407E03148007820B12F4804788F
:103E600000202E4908607CB1601E2D4908600121A8
:103E70002948FEF76AFE28480068006840F0010003
:103E800025490968086007E025483038006820F0B7
:103E900001002349303908606FF001001E490968AC
:103EA000086120480068006900F0010090B31B48D9
:103EB0000068FF2808D919480068A0F580701749E4
:103EC00008604FF4807407E01448007820B113486C
:103ED00004780020114908607CB1601E1049086018
:103EE00001211048FEF731FE0E480068006840F0DE
:103EF00001000C490968086007E00948303800688B
:103F000020F001000649303908606FF001000549D2
:103F10000968086110BD0000C40300205C00002097
:103F2000302C01401004002010B50C48FFF7BBF9FD
:103F30006FF003000949096808610948FFF7B3F900
:103F40006FF003000649096808610648FFF7ABF9FE
:103F50006FF0050003490968086110BD5C0400208A
:103F6000F4040020A804002010B50268184B984201
:103F700002D0B0F1804F03D122F070024B681A4397
:103F8000134B984208D0B0F1804F05D0114B9842A6
:103F900002D0114B984203D122F44072CB681A43ED
:103FA00022F080034C6943EA040202608B68C3621A
:103FB0000B688362064B984205D0064B984202D0AC
:103FC000054B984201D10B6903630123436110BD86
:103FD000002C0140004001400044014030B501F098
:103FE0001F05012404FA05F3046A9C430462046A71
:103FF00001F01F0502FA05F52C43046230BD0000F4
:1040000070B50C461546026A066A26F0010606627D
:104010008169104EB04205D0B0F1804F02D00E4EF3
:10402000B04201D1012600E000261EB121F00301BB
:10403000294301E041F0010121F0F001F02606EAF8
:104040000316314322F00A0204F00A06324381616A
:10405000026270BD002C01400040014070B50C466A
:104060001546026A066A26F010060662816921F486
:10407000407141EA052121F470414FF4704606EA8F
:104080000336314322F0A002A02606EA041632438A
:104090008161026270BD70B50C461546026A066AFF
:1040A00026F480760662C16921F00301294321F0DC
:1040B000F001F02606EA0316314322F420624FF4A1
:1040C000206606EA04263243C161026270BD70B503
:1040D0000C461546026A066A26F480560662C169D5
:1040E00021F4407141EA052121F470414FF47046FA
:1040F00006EA0336314322F420424FF4204606EA12
:1041000004363243C161026270BD70B50546AC6AC7
:104110000020A4F85A00A4F852002046FFF754FAF1
:1041200070BD00BF00BF026852E8002F22F49071FA
:10413000036843E80012002AF5D100BF00BF00BFAA
:104140000268083252E8002F22F0010102680832AA
:1041500042E80013002BF3D100BF016E01290CD1FE
:1041600000BF00BF026852E8002F22F01001036870
:1041700043E80012002AF5D100BF2021C0F88010CA
:10418000002101668166704710B5044600BF00BF7C
:10419000216851E8001F21F04000226842E8000138
:1041A0000029F5D100BF2020E0670020E06620460E
:1041B000FFF742FC10BD2DE9F04104460D461746BD
:1041C0009846069E3CE0701CC8B3FDF7C5FEA0EB08
:1041D0000800B04200D816B90320BDE8F08120687D
:1041E000006800F0040050B32068C069C0F3C0004C
:1041F00078B10820216808622046FFF792FF082066
:10420000C4F8840000BF002084F8780000BF0120BB
:10421000E3E72068C069C0F3C02080B14FF40060BC
:10422000216808622046FFF77CFF2020C4F8840044
:1042300000BF002084F8780000BF0320CDE7FFE72F
:104240002068C0692840A84201D1012000E0002078
:10425000B842B8D00020C0E710B50248FFF7B6F961
:1042600010BD00001802002008B50E480068C069A3
:10427000C0F34010A8B14FF47A730122694609488F
:10428000FFF74EFB0848007840280ADA9DF8000046
:104290000649054A1278885403480078401C0249B0
:1042A000087008BDFC020020590000208403002093
:1042B00000BFFEE7014A024900F02FB8914500080F
:1042C0004800002002480068C0F302207047000048
:1042D0000CED00E010B5002804DB0A07130E054AB8
:1042E000135406E00A07140E034A00F00F031B1FC5
:1042F000D45410BD00E400E018ED00E002E008C86E
:10430000121F08C1002AFAD170477047002001E04F
:1043100001C1121F002AFBD170472DE9F04116465A
:104320000F460446002503E03946B047641C6D1C67
:1043300020780028F8D12846BDE8F0810FB470B588
:10434000239D2F48049004A8FCF742FD08B1FCF718
:1043500082FA00200590002106910791089108211A
:104360000991002104A801760121417602210B91D7
:1043700000218DF830100D910E910F918DF84010A5
:104380004FF48051119100218DF84810FCF700FE88
:1043900008B1FCF760FA012D02D11A481D9001E026
:1043A00019481D9006201E9001201F907F2020900C
:1043B00004202190002022901DA904A8FCF7A4FA53
:1043C00008B1FCF748FA7F2104A8FCF747FA08B1C6
:1043D000FCF741FA04A8FCF794FF08B1FCF73BFA9C
:1043E0000A2104A8FCF72AFF08B1FCF734FA04A854
:1043F000FCF7CAFD84B2204670BC5DF814FB0000D7
:10440000000004500080F03E000021432DE9F041FF
:104410008AB004460D4616461F46DDF840801B480C
:104420001B49086008464760C0F80880C460066100
:1044300045610021017641768176C1760177417729
:10444000FDF7F7F918B101200AB0BDE8F0810020AE
:1044500005900690012007900020009001900290A6
:1044600003900490012008900E20099069460848A6
:10447000FDF761F808B10220E6E70548FDF706FB05
:1044800008B10320E0E70020DEE700000064004000
:10449000A002002070B505460C4600210848FDF733
:1044A000CFF808B9012070BD2346064A0021044810
:1044B000FDF7DAF808B10120F5E70020F3E7000086
:1044C000A0020020E0020020F8B504460D46164682
:1044D00000270120009012484460042010498860A1
:1044E0000020C860084606616B462A460D48FCF766
:1044F0007DFF08B10120F8BD0AE0781C87B2B7F54E
:10450000805F05DB07480099FCF745FF0120F2E7D3
:104510000448FDF773F90328EFD10020EBE7000012
:10452000C8020020A0020020014908607047000076
:104530004400002010B504464FF47A7104FB01F0EA
:1045400000F002F810BD000070B5034600224FF0E5
:10455000E02675690D4E366803FB06F44FF0E02641
:10456000B16910E04FF0E026B06988420BD0884274
:1045700002D20E1A324402E02E1A0E443244014690
:10458000A24200D300E0EDE700BF70BD4400002070
:1045900000BF054A126802F04002002AF9D0C2B2F8
:1045A000014B08331A8070471C38014000B587B0B2
:1045B00000BF00BF1C48C06C40F002001A49C8642C
:1045C0000846C06C00F00200019000BF00BF00BFB1
:1045D00000BF00BF0846C06C40F00200C864084637
:1045E000C06C00F00200019000BF00BF00BF4FF49C
:1045F00000500290002003900120049002200590BA
:1046000002A90A48FDF7B4FB4FF480400290002055
:104610000390012004900220059002A90348FDF7B1
:10462000A7FB07B000BD00000010024000040048D6
:1046300070B50446002514B101201B4908701A48C2
:10464000007800B34FF400511848FDF771FC28B111
:104650004FF480411548FDF76BFCA0B90A20FFF725
:1046600069FF0020104908704FF400510F48FDF712
:104670005FFC00B901254FF480410C48FDF758FC60
:1046800080B902250EE04FF400510848FDF750FCB8
:10469000012807D181030548FDF74AFC012801D113
:1046A00001490870284670BD5A00002000040048E7
:1046B00000B587B000BF00BF0D48C06C40F00100DE
:1046C0000B49C8640846C06C00F00100019000BFAF
:1046D00000BF00BFC8140290002003900490022085
:1046E000059002A94FF09040FDF742FB07B000BDD6
:1046F000001002402DED0A8BC2B000204190FDF762
:104700003DFC022003460722012100900A2001F00F
:10471000FDF82820FFF708FFFFF7F8F9FFF746FF3D
:1047200000264FF440384FF40015642700203B4624
:104730004246294600903046FFF768FEFFF7B4FA7C
:1047400000F0FCFFFCF73CF8FFF7B2FF27214FF623
:10475000FF7000F011F927214FF6FF7000F06CF99F
:1047600027214FF6FF7000F03DF954226D491CA837
:10477000FBF72AFD6B48406D31906A48806D32909E
:104780006849C86D096ECDE93301012018223BA9A3
:104790001B9015A8FBF718FD542220A96846FBF7CB
:1047A00013FD1CA80FC8FFF7C9FD5F490880084624
:1047B0000088FBF711FE41EC1C0B9FED5C0B53ECEA
:1047C000102BFBF725FD41EC1B0B9FED5A0B53EC17
:1047D000102BFBF71DFD41EC1A0B9FED580B53EC12
:1047E000102BFBF715FD41EC190B9FED560B53EC0D
:1047F000102BFBF782FD41EC180BFBF7FAFD534938
:104800000870542252491CA8FBF7DEFC5048406D4A
:1048100031904F48806D32904D49C86D096ECDE999
:1048200033010220182235A91B9015A8FBF7CCFCF8
:10483000542220A96846FBF7C7FC1CA80FC8FFF745
:104840007DFD4449088008460088FBF7C5FD41EC22
:104850001C0B9FED360B53EC102BFBF7D9FC41ECF6
:104860001B0B9FED340B53EC102BFBF7D1FC41ECF1
:104870001A0B9FED320B53EC102BFBF7C9FC41ECEC
:10488000190B9FED300B53EC102BFBF736FD41EC71
:10489000180BFBF7AEFD3049087041E000F002F95B
:1048A0000020FFF7C5FE0446012C01D0022C05D1E3
:1048B0002AA0FFF7FFFC01202C4908704FF400618B
:1048C0004FF09040FDF734FB012808D181024FF0F2
:1048D0009040FDF72DFB10B90120254908700320F9
:1048E000244908701948007888701B480078C870FF
:1048F0004FF480614FF09040FDF71AFB1D4908719D
:104900001121092000F072F91A49D1E900208968C3
:10491000CDE9322034910A460146329800F05CFC21
:10492000BCE700006C0000200000002066666666A0
:1049300066660A40000000000000244000000000FD
:1049400000001840000000000000B04004000020FB
:10495000D00000200200002005000020D3D0B0B419
:10496000BCFCB0B4CFC20D0A00000000060000205D
:1049700008000020340100207FB504460D46184889
:10498000FEF751FA002000900190029003904FF042
:104990008040134908600846456000218160C4607A
:1049A00001200F4908770846FEF77DFA02200090A3
:1049B00001200190002002900390002269460848DF
:1049C000FEF7C2F906480068C06840F001000449DB
:1049D0000968C86000210248FEF724FB7FBD000083
:1049E0005C0400207FB504460D461248FEF71BFA12
:1049F000002000900190029003904FF080400D49FC
:104A000008600846456000218160C46001200949B2
:104A100008770846FEF747FA02200090012001902F
:104A2000002002900390002269460248FEF78CF9AC
:104A30007FBD0000F40400207FB504460D461848F1
:104A4000FEF7F1F9002000900190029003904FF0E2
:104A50008040134908600846456000218160C460B9
:104A600002200F4908770846FEF71DFA0220009041
:104A7000012001900020029003900422694608481A
:104A8000FEF762F906480068C06840F0010004497A
:104A90000968C86004210248FEF7C4FA7FBD00001F
:104AA000A804002010B54548007800F080000028D8
:104AB0003ED04248007800F03F0041490860084677
:104AC0000068C0EB00400860084600683D4909885E
:104AD00008443B4908600846006841F2707188420A
:104AE0000ED337480068B0F5FA5F09D8012036497F
:104AF00008701C20FDF780FA00213448FEF758FBAF
:104B00002F480068B0F57A6F0FD32D48006841F246
:104B10007071884209D801202D4908701C20FDF7CA
:104B20006BFA00212948FEF743FB00202349087057
:104B30002848007800F0800000283ED02548007802
:104B400000F03F002449086008460068C0EB0040C0
:104B50000860084600682149098808441E49086021
:104B60000846006841F2707188420ED31A48006806
:104B7000B0F5FA5F09D80120194908701C20FDF72B
:104B80003BFA04211748FEF713FB13480068B0F501
:104B90007A6F0FD31048006841F27071884209D8CB
:104BA0000120114908701C20FDF726FA04210D4848
:104BB000FEF7FEFA00200749087010BD60000020D3
:104BC00034000020620000202B0000205C04002044
:104BD0002E00002064000020380000206600002025
:104BE0002C000020A80400202F00002070B50546EE
:104BF0000C4673480078012803D0724800780128D9
:104C000043D171480078012822D14FF49670FFF704
:104C10009BFC6EA0FFF74EFB00BF012211024FF07C
:104C20009040FDF78DF900BF2846FFF783FC00BFD9
:104C300000224FF480714FF09040FDF781F900BFE2
:104C400000205F4908705F4908705F4908701CE0E8
:104C50004FF49670FFF778FC00BF012211024FF06D
:104C60009040FDF76DF900BF2046FFF763FC00BFE1
:104C700000224FF480714FF09040FDF761F900BFC2
:104C800000204F4908704F4908705C48007801289F
:104C900003D05B480078012843D14B4800780128B5
:104CA00022D14FF49670FFF74FFC48A0FFF702FBAC
:104CB00000BF012251024FF09040FDF741F900BFC3
:104CC0002846FFF737FC00BF00224FF400714FF079
:104CD0009040FDF735F900BF002048490870484969
:104CE0000870394908701CE04FF49670FFF72CFCEF
:104CF00000BF012251024FF09040FDF721F900BFA3
:104D00002046FFF717FC00BF00224FF400714FF060
:104D10009040FDF715F900BF002038490870384968
:104D200008700A20FFF710FC00BF0122042135485B
:104D3000FDF706F900BF4FF08040006920F0020047
:104D40004FF0804108610846006920F004000861C6
:104D50001C20FDF751F904212B48FEF729FA1C20ED
:104D6000FDF76CF900212948FEF75CF9232000F0DB
:104D70003DFE27480078012821D11C20FDF73CF991
:104D800000212248FEF714FA0120FFF7D3FB00BFF1
:104D9000002204211B48FDF7D3F800BF1C20FDF7BB
:104DA0004DF900211B48FEF73DF91C20FDF746F99F
:104DB00004211548FEF736F900201549087070BD2A
:104DC0002B0000202E00002008000020B2B6BBF10E
:104DD000B5BD7175657279D0C5BAC5A3ACB1D5BA88
:104DE000CFB5E7D7D3BFAAB9D820515545525941BD
:104DF000425F4F4E2F4F46460D0A00002C00002008
:104E00002F00002000040048A8040020F404002023
:104E1000300000205C040020FEB505460020029012
:104E200000260090019001214FF09040FDF780F89E
:104E30008DF8000002214FF09040FDF779F88DF8D1
:104E4000010004214FF09040FDF772F88DF8020048
:104E500008214FF09040FDF76BF88DF8030010210A
:104E60004FF09040FDF764F88DF8040020214FF0DA
:104E70009040FDF75DF88DF8050040214FF090401F
:104E8000FDF756F88DF8060080214FF09040FDF7B1
:104E90004FF88DF80700C848007801282ED19DF8FA
:104EA0000000C6490978884228D02888FFF742FBCD
:104EB000002405E09DF8000002A90855601CC4B25A
:104EC000032CF7DB9DF808009DF8091088420ED1ED
:104ED0009DF808009DF80A10884208D1B8A0FFF795
:104EE000E9F901269DF80000B449087006E09DF834
:104EF0000A00B24908702888FFF71CFBAE484078CA
:104F000001282AD19DF80100AC494978884224D073
:104F10006888FFF70FFB002405E09DF8010002A957
:104F20000855601CC4B2032CF7DB9DF808009DF8FF
:104F3000091088420ED19DF808009DF80A10884299
:104F400008D19FA0FFF7B6F901269DF801009B4903
:104F5000487002E06888FFF7EDFA974880780128EA
:104F60002AD19DF8020095498978884224D0A888E2
:104F7000FFF7E0FA002405E09DF8020002A90855B9
:104F8000601CC4B2032CF7DB9DF808009DF80910E3
:104F900088420ED19DF808009DF80A10884208D179
:104FA00087A0FFF787F901269DF8020083498870E2
:104FB00002E0A888FFF7BEFA7F48C07801282AD10E
:104FC0009DF803007D49C978884224D0E888FFF71E
:104FD000B1FA002405E09DF8030002A90855601C01
:104FE000C4B2032CF7DB9DF808009DF80910884235
:104FF0000ED19DF808009DF80A10884208D170A0D3
:10500000FFF758F901269DF803006C49C87002E0CB
:10501000E888FFF78FFA6848007901282AD19DF8BF
:10502000040066490979884224D02889FFF782FA6A
:10503000002405E09DF8040002A90855601CC4B2D4
:10504000032CF7DB9DF808009DF8091088420ED16B
:105050009DF808009DF80A10884208D158A0FFF773
:1050600029F901269DF804005449087102E02889B5
:10507000FFF760FA5048407901282AD19DF80500D1
:105080004E494979884224D06889FFF753FA0024B1
:1050900005E09DF8050002A90855601CC4B2032C68
:1050A000F7DB9DF808009DF8091088420ED19DF8A5
:1050B00008009DF80A10884208D141A0FFF7FAF8CD
:1050C00001269DF805003D49487102E06889FFF717
:1050D00031FA3948807901282AD19DF806003749EC
:1050E0008979884224D0A889FFF724FA002405E0B2
:1050F0009DF8060002A90855601CC4B2032CF7DB1A
:105100009DF808009DF8091088420ED19DF808000E
:105110009DF80A10884208D129A0FFF7CBF8012694
:105120009DF806002549487002E0A889FFF702FAB9
:105130002148C07901282AD19DF807001F49C97963
:10514000884224D0E889FFF7F5F9002405E09DF8AE
:10515000070002A90855601CC4B2032CF7DB9DF8B8
:1051600008009DF8091088420ED19DF808009DF8AE
:105170000A10884208D112A0FFF79CF801269DF87A
:1051800007000E49C87102E0E889FFF7D3F906204D
:10519000FCF754FF0720FCF751FF0820FCF74EFFF7
:1051A0000920FCF74BFF0A20FCF748FF1720FCF70B
:1051B00045FF3046FEBD0000100000201800002012
:1051C0004449B5C4D6B5D3D0B1E4BBAF2CC9CFB137
:1051D000A8CAFDBEDD0D0A002DE9F74F84B002A874
:1051E00001904FF000094FF4FA70FFF7ADF99DF808
:1051F000140001281ED100BF0022C103FA48FCF7A9
:105200009FFE00BF00BF00224FF48041F648FCF72C
:1052100097FE00BF00BF00224FF40051F248FCF798
:105220008FFE00BF00BF00224FF48051EE48FCF714
:1052300087FE00BFED480078012807D19DF81600D1
:1052400020F00400001D8DF8160005E09DF8160002
:1052500020F004008DF816008021E348FCF768FE7A
:10526000012807D19DF8160020F00100401C8DF8A0
:10527000160005E09DF8160020F001008DF81600DC
:10528000DB480078012802D18DF8150002E00020EB
:105290008DF815009DF81000D64908709DF8120091
:1052A00048709DF8130088709DF81400C8709DF830
:1052B0001500087100BF00224FF480514FF090405C
:1052C000FCF73EFE00BFCC4948680199FFF7E2F8C1
:1052D000002827D1C84840684FEA1068C64880882F
:1052E000C0F30725C44804794068C0F30640C349A9
:1052F0000870B8F1010F16D1C14805700078C14996
:1053000008700846007801280CDB084600783D2824
:1053100008DCBB490978BC4A42EA01400022B54991
:10532000FFF7D2F89DE1B8F1030F74D1B3480078CC
:10533000B44909788842F8D1012D1CD16CB900BF5D
:105340000022E903A848FCF7FBFD00BFAF48007846
:1053500020F00100AD4908706BE000BF0122D103CD
:10536000A148FCF7EDFD00BFA848007840F001001F
:10537000A64908705DE0022D1CD16CB900BF002267
:1053800069039948FCF7DCFD00BFA048007820F0D5
:1053900002009E4908704CE000BF01229103924830
:1053A000FCF7CEFD00BF9948007840F00200974915
:1053B00008703EE0032D1DD174B900BF00224FF4E8
:1053C00000518948FCF7BCFD00BF9048007820F0F0
:1053D00004008E4908702CE000BF0122510382486E
:1053E000FCF7AEFD00BF8948007840F00400874913
:1053F00008701EE0042D1CD174B900BF0022A90260
:105400007948FCF79DFD00BF8048007820F0080037
:105410007E4908700DE017E000BF012211037248B9
:10542000FCF78EFD00BF7948007840F0080077490E
:105430000870764800786F49C8716F490022486843
:105440006C49FFF741F80CE1B8F1170F4CD16B48EC
:1054500000786C490978884246D1012D1AD16CA098
:10546000FEF728FF00BF012251036C48FCF768FDDE
:1054700000BF9DF8160020F00200801C8DF8160079
:105480005F490978664A42EA014000225949FFF71C
:105490001BF81AE063A0FEF70DFF00BF00224FF4D7
:1054A00000515E48FCF74CFD00BF9DF8160020F04F
:1054B00002008DF81600524909784FF0BC5242EABA
:1054C000014000224B49FEF7FFFF9DF81600C0F394
:1054D000400161F35F009DF81610C1F3800140EABE
:1054E000810044494871BCE0B8F1180F3CD14348F1
:1054F000007844490978884236D114B94FF0000A3F
:105500002BE0012C02D14FF4966726E0022C02D149
:105510004FF4166721E0032C02D14FF496571CE09C
:10552000042C02D14FF4165717E0052C02D14FF48A
:10553000964712E0062C02D14FF416470DE0072CD7
:1055400002D14FF4614708E0082C02D14FF4E13753
:1055500003E0092C01D14FF4E127274900224868D4
:105560002449FEF7B1FF7CE0B8F11E0F79D1234842
:10557000007824490978884273D12611012E06D17A
:1055800004F00F0045EA00202949088063E0022E5C
:1055900006D104F00F0045EA0020254948805AE072
:1055A000032E06D104F00F0045EA00202049888030
:1055B00051E0042E06D104F00F0045EA00201C49FA
:1055C000C88048E0052E06D104F00F0045EA00200F
:1055D000174908813FE0062E2CD104F00F0045EA60
:1055E00000201349488136E00004004806000020EE
:1055F0000800002023000020E002002020000020FE
:10560000070000202100002000038011220000205C
:10561000D4CAD0EDB3E4B5E70D0A00000008004895
:1056200000018017BDFBD6B9B3E4B5E70D0A000051
:105630003E010020072E06D104F00F0045EA0020AD
:105640003749888107E0082E05D104F00F0045EAAC
:1056500000203349C8813349002248683249FEF7A7
:1056600033FF2F48FFF7D8FB8146B9F1010F53D123
:1056700001214FF09040FCF75BFC834602214FF084
:105680009040FCF755FC4BEA400B04214FF0904052
:10569000FCF74EFC4BEA800B08214FF09040FCF7E2
:1056A00047FC4BEAC00B10214FF09040FCF740FC48
:1056B0004BEA001B20214FF09040FCF739FC4BEAED
:1056C000401B40214FF09040FCF732FC4BEA801B1E
:1056D00080214FF09040FCF72BFC4BEAC010C0B289
:1056E0008DF817009DF817000F4988710F49097848
:1056F0004FF0207242EA014008220B49FEF7E4FE17
:105700004FF0000900200A49087048708870C8707E
:10571000087148718871C87107B000F00BB80000BB
:105720003E010020E00200202300002007000020AE
:105730001000002030BCBDE8C08F000000B587B06D
:1057400000BF00BF7048C06C40F001006E49C864E3
:105750000846C06C00F00100019000BF00BF00BF10
:1057600000BF00BF0846C06C40F00100C864084696
:10577000C06C00F00100019000BF00BF00BF01201D
:1057800002904FF4441003900020049002A94FF0BF
:105790009040FCF7EDFA022002904FF44410039081
:1057A0000020049002A94FF09040FCF7E1FA042099
:1057B00002904FF4441003900020049002A94FF08F
:1057C0009040FCF7D5FA082002904FF44410039063
:1057D0000020049002A94FF09040FCF7C9FA102075
:1057E00002904FF4441003900020049002A94FF05F
:1057F0009040FCF7BDFA202002904FF44410039033
:105800000020049002A94FF09040FCF7B1FA40202C
:1058100002904FF4441003900020049002A94FF02E
:105820009040FCF7A5FA802002904FF444100390BA
:105830000020049002A94FF09040FCF799FA4FF431
:105840008060029000200390049002A94FF09040E5
:10585000FCF78EFA002201210620FCF703FC01224E
:1058600011460720FCF7FEFB022201210820FCF76D
:10587000F9FB032201210920FCF7F4FB042201219A
:105880000A20FCF7EFFB052201211720FCF7EAFBB9
:105890000620FCF7D3FB0720FCF7D0FB0820FCF721
:1058A000CDFB0920FCF7CAFB0A20FCF7C7FB172039
:1058B000FCF7C4FB01214FF09040FCF739FB0221BB
:1058C0004FF09040FCF734FB04214FF09040FCF780
:1058D0002FFB08214FF09040FCF72AFB10214FF0DE
:1058E0009040FCF725FB20214FF09040FCF720FB77
:1058F00040214FF09040FCF71BFB80214FF090407F
:10590000FCF716FB07B000BD001002402DE9F04384
:1059100097B004460D4616461F46DDF878904FF0C6
:105920000008442106A8FAF768FC142101A8FAF738
:1059300064FC00BF2A48806D40F08050284988658B
:105940000846806D00F08050009000BF00BF00BF8F
:105950002448006820F4C06040F4007021490860C9
:105960000846006800F4C060009000BF00BF01203E
:1059700006900004079002201090032111911394C7
:10598000129514961597CDF8589006A8FCF718FDB7
:105990008046B8F1000F03D0012017B0BDE8F083B6
:1059A0000F200190032002900020039004900590A6
:1059B000022101A8FCF7B4FB8046B8F1000F01D02A
:1059C0000120EAE7FCF7C2FA41F20101884205D161
:1059D0000548006840F48070034908600020DCE757
:1059E00000100240007000400020024010B5044644
:1059F0001F48007800F08000C8B31D48007800F010
:105A00003F001C49086008460068C0EB0040086081
:105A1000084600681849098808441649086004EBDC
:105A20004400C0EBC4104FF47A71C1EBC0001149BF
:105A30000968884218D804EB4400C0EBC4104FF446
:105A40007A7101EBC0000B49096888420CD3012030
:105A50000A4908701C20FCF7CFFA00210848FDF71E
:105A6000A7FB00200349086000200149087010BD11
:105A7000680000203C0000206A0000203000002068
:105A8000F4040020000000000000000001020304F4
:105A9000060708090000000001020304A0860100B7
:105AA000400D0300801A060000350C0040420F0034
:105AB00080841E0000093D0000127A000024F400DA
:105AC00000366E010048E801006CDC02EC5A000868
:105AD000000000206C000000FC420008585B000839
